{"contracts/MedisecureRegistry.sol":{"MedisecureRegistry":{"abi":[{"inputs":[{"internalType":"address","name":"initialAdmin","type":"address"}],"stateMutability":"nonpayable","type":"constructor"},{"anonymous":false,"inputs":[{"indexed":true,"internalType":"bytes32","name":"resourceId","type":"bytes32"},{"indexed":true,"internalType":"address","name":"grantee","type":"address"}],"name":"AccessGranted","type":"event"},{"anonymous":false,"inputs":[{"indexed":true,"internalType":"bytes32","name":"resourceId","type":"bytes32"},{"indexed":true,"internalType":"address","name":"grantee","type":"address"}],"name":"AccessRevoked","type":"event"},{"anonymous":false,"inputs":[{"indexed":true,"internalType":"bytes32","name":"resourceId","type":"bytes32"},{"indexed":true,"internalType":"address","name":"owner","type":"address"},{"indexed":false,"internalType":"string","name":"cid","type":"string"},{"indexed":false,"internalType":"bytes32","name":"cipherHash","type":"bytes32"}],"name":"ResourceRegistered","type":"event"},{"anonymous":false,"inputs":[{"indexed":true,"internalType":"bytes32","name":"role","type":"bytes32"},{"indexed":true,"internalType":"bytes32","name":"previousAdminRole","type":"bytes32"},{"indexed":true,"internalType":"bytes32","name":"newAdminRole","type":"bytes32"}],"name":"RoleAdminChanged","type":"event"},{"anonymous":false,"inputs":[{"indexed":true,"internalType":"bytes32","name":"role","type":"bytes32"},{"indexed":true,"internalType":"address","name":"account","type":"address"},{"indexed":true,"internalType":"address","name":"sender","type":"address"}],"name":"RoleGranted","type":"event"},{"anonymous":false,"inputs":[{"indexed":true,"internalType":"bytes32","name":"role","type":"bytes32"},{"indexed":true,"internalType":"address","name":"account","type":"address"},{"indexed":true,"internalType":"address","name":"sender","type":"address"}],"name":"RoleRevoked","type":"event"},{"inputs":[],"name":"DEFAULT_ADMIN_ROLE","outputs":[{"internalType":"bytes32","name":"","type":"bytes32"}],"stateMutability":"view","type":"function"},{"inputs":[],"name":"EMERGENCY_ISSUER_ROLE","outputs":[{"internalType":"bytes32","name":"","type":"bytes32"}],"stateMutability":"view","type":"function"},{"inputs":[{"internalType":"bytes32","name":"","type":"bytes32"},{"internalType":"address","name":"","type":"address"}],"name":"encryptedKeys","outputs":[{"internalType":"bytes","name":"","type":"bytes"}],"stateMutability":"view","type":"function"},{"inputs":[{"internalType":"bytes32","name":"resourceId","type":"bytes32"},{"internalType":"address","name":"grantee","type":"address"}],"name":"getEncryptedKey","outputs":[{"internalType":"bytes","name":"","type":"bytes"}],"stateMutability":"view","type":"function"},{"inputs":[{"internalType":"bytes32","name":"role","type":"bytes32"}],"name":"getRoleAdmin","outputs":[{"internalType":"bytes32","name":"","type":"bytes32"}],"stateMutability":"view","type":"function"},{"inputs":[{"internalType":"bytes32","name":"resourceId","type":"bytes32"},{"internalType":"address","name":"grantee","type":"address"},{"internalType":"bytes","name":"encryptedSymKey","type":"bytes"}],"name":"grantAccess","outputs":[],"stateMutability":"nonpayable","type":"function"},{"inputs":[{"internalType":"bytes32","name":"role","type":"bytes32"},{"internalType":"address","name":"account","type":"address"}],"name":"grantRole","outputs":[],"stateMutability":"nonpayable","type":"function"},{"inputs":[{"internalType":"bytes32","name":"role","type":"bytes32"},{"internalType":"address","name":"account","type":"address"}],"name":"hasRole","outputs":[{"internalType":"bool","name":"","type":"bool"}],"stateMutability":"view","type":"function"},{"inputs":[{"internalType":"bytes32","name":"resourceId","type":"bytes32"},{"internalType":"string","name":"cid","type":"string"},{"internalType":"bytes32","name":"cipherHash","type":"bytes32"},{"internalType":"string","name":"metadata","type":"string"}],"name":"registerResource","outputs":[],"stateMutability":"nonpayable","type":"function"},{"inputs":[{"internalType":"bytes32","name":"role","type":"bytes32"},{"internalType":"address","name":"account","type":"address"}],"name":"renounceRole","outputs":[],"stateMutability":"nonpayable","type":"function"},{"inputs":[{"internalType":"bytes32","name":"","type":"bytes32"}],"name":"resources","outputs":[{"internalType":"address","name":"owner","type":"address"},{"internalType":"string","name":"cid","type":"string"},{"internalType":"bytes32","name":"cipherHash","type":"bytes32"},{"internalType":"string","name":"metadata","type":"string"},{"internalType":"uint256","name":"createdAt","type":"uint256"}],"stateMutability":"view","type":"function"},{"inputs":[{"internalType":"bytes32","name":"resourceId","type":"bytes32"},{"internalType":"address","name":"grantee","type":"address"}],"name":"revokeAccess","outputs":[],"stateMutability":"nonpayable","type":"function"},{"inputs":[{"internalType":"bytes32","name":"role","type":"bytes32"},{"internalType":"address","name":"account","type":"address"}],"name":"revokeRole","outputs":[],"stateMutability":"nonpayable","type":"function"},{"inputs":[{"internalType":"bytes4","name":"interfaceId","type":"bytes4"}],"name":"supportsInterface","outputs":[{"internalType":"bool","name":"","type":"bool"}],"stateMutability":"view","type":"function"}],"evm":{"bytecode":{"linkReferences":{},"object":"60806040523480156200001157600080fd5b506040516200240038038062002400833981810160405281019062000037919062000314565b620000896000801b600073ffffffffffffffffffffffffffffffffffffffff168373ffffffffffffffffffffffffffffffffffffffff16146200007b57826200007d565b335b620000c560201b60201c565b620000be7f5b8b380b1c48963186c539f7406268ddbde5178d20526fbfbe57a758a7b86afd6000801b620001b660201b60201c565b5062000346565b620000d782826200021960201b60201c565b620001b257600160008084815260200190815260200160002060000160008373ffffffffffffffffffffffffffffffffffffffff1673ffffffffffffffffffffffffffffffffffffffff16815260200190815260200160002060006101000a81548160ff021916908315150217905550620001576200028360201b60201c565b73ffffffffffffffffffffffffffffffffffffffff168173ffffffffffffffffffffffffffffffffffffffff16837f2f8788117e7eff1d82e926ec794901d17c78024a50270940304540a733656f0d60405160405180910390a45b5050565b6000620001c9836200028b60201b60201c565b905081600080858152602001908152602001600020600101819055508181847fbd79b86ffe0ab8e8776151514217cd7cacd52c909f66475c3af44e129f0b00ff60405160405180910390a4505050565b600080600084815260200190815260200160002060000160008373ffffffffffffffffffffffffffffffffffffffff1673ffffffffffffffffffffffffffffffffffffffff16815260200190815260200160002060009054906101000a900460ff16905092915050565b600033905090565b6000806000838152602001908152602001600020600101549050919050565b600080fd5b600073ffffffffffffffffffffffffffffffffffffffff82169050919050565b6000620002dc82620002af565b9050919050565b620002ee81620002cf565b8114620002fa57600080fd5b50565b6000815190506200030e81620002e3565b92915050565b6000602082840312156200032d576200032c620002aa565b5b60006200033d84828501620002fd565b91505092915050565b6120aa80620003566000396000f3fe608060405234801561001057600080fd5b50600436106100ea5760003560e01c80638a81ced21161008c57806391d148541161006657806391d148541461026f578063a217fddf1461029f578063d547741f146102bd578063fe611a7c146102d9576100ea565b80638a81ced2146102035780638d53b2081461021f578063912929df1461023b576100ea565b806336568abe116100c857806336568abe1461016b5780637204608a1461018757806378037e89146101b75780637bbc67d7146101d3576100ea565b806301ffc9a7146100ef578063248a9ca31461011f5780632f2ff15d1461014f575b600080fd5b610109600480360381019061010491906112cc565b6102f7565b6040516101169190611314565b60405180910390f35b61013960048036038101906101349190611365565b610371565b60405161014691906113a1565b60405180910390f35b6101696004803603810190610164919061141a565b610390565b005b6101856004803603810190610180919061141a565b6103b1565b005b6101a1600480360381019061019c919061141a565b610434565b6040516101ae91906114ea565b60405180910390f35b6101d160048036038101906101cc9190611571565b6104e1565b005b6101ed60048036038101906101e8919061141a565b610743565b6040516101fa91906114ea565b60405180910390f35b61021d6004803603810190610218919061166e565b610826565b005b6102396004803603810190610234919061141a565b610974565b005b61025560048036038101906102509190611365565b610abc565b60405161026695949392919061175f565b60405180910390f35b6102896004803603810190610284919061141a565b610c22565b6040516102969190611314565b60405180910390f35b6102a7610c8c565b6040516102b491906113a1565b60405180910390f35b6102d760048036038101906102d2919061141a565b610c93565b005b6102e1610cb4565b6040516102ee91906113a1565b60405180910390f35b60007f7965db0b000000000000000000000000000000000000000000000000000000007bffffffffffffffffffffffffffffffffffffffffffffffffffffffff1916827bffffffffffffffffffffffffffffffffffffffffffffffffffffffff1916148061036a575061036982610cd8565b5b9050919050565b6000806000838152602001908152602001600020600101549050919050565b61039982610371565b6103a281610d42565b6103ac8383610d56565b505050565b6103b9610e36565b73ffffffffffffffffffffffffffffffffffffffff168173ffffffffffffffffffffffffffffffffffffffff1614610426576040517f08c379a000000000000000000000000000000000000000000000000000000000815260040161041d90611832565b60405180910390fd5b6104308282610e3e565b5050565b600260205281600052604060002060205280600052604060002060009150915050805461046090611881565b80601f016020809104026020016040519081016040528092919081815260200182805461048c90611881565b80156104d95780601f106104ae576101008083540402835291602001916104d9565b820191906000526020600020905b8154815290600101906020018083116104bc57829003601f168201915b505050505081565b600073ffffffffffffffffffffffffffffffffffffffff166001600088815260200190815260200160002060000160009054906101000a900473ffffffffffffffffffffffffffffffffffffffff1673ffffffffffffffffffffffffffffffffffffffff1614610586576040517f08c379a000000000000000000000000000000000000000000000000000000000815260040161057d906118fe565b60405180910390fd5b6040518060a001604052803373ffffffffffffffffffffffffffffffffffffffff16815260200186868080601f016020809104026020016040519081016040528093929190818152602001838380828437600081840152601f19601f82011690508083019250505050505050815260200184815260200183838080601f016020809104026020016040519081016040528093929190818152602001838380828437600081840152601f19601f820116905080830192505050505050508152602001428152506001600088815260200190815260200160002060008201518160000160006101000a81548173ffffffffffffffffffffffffffffffffffffffff021916908373ffffffffffffffffffffffffffffffffffffffff16021790555060208201518160010190816106ba9190611af9565b506040820151816002015560608201518160030190816106da9190611af9565b50608082015181600401559050503373ffffffffffffffffffffffffffffffffffffffff16867fb13f804c30563e6530af8c8714f39ce7e0a3e04d1857f00e1335d7d7dcd888d787878760405161073393929190611c07565b60405180910390a3505050505050565b60606002600084815260200190815260200160002060008373ffffffffffffffffffffffffffffffffffffffff1673ffffffffffffffffffffffffffffffffffffffff16815260200190815260200160002080546107a090611881565b80601f01602080910402602001604051908101604052809291908181526020018280546107cc90611881565b80156108195780601f106107ee57610100808354040283529160200191610819565b820191906000526020600020905b8154815290600101906020018083116107fc57829003601f168201915b5050505050905092915050565b3373ffffffffffffffffffffffffffffffffffffffff166001600086815260200190815260200160002060000160009054906101000a900473ffffffffffffffffffffffffffffffffffffffff1673ffffffffffffffffffffffffffffffffffffffff16146108ca576040517f08c379a00000000000000000000000000000000000000000000000000000000081526004016108c190611c85565b60405180910390fd5b81816002600087815260200190815260200160002060008673ffffffffffffffffffffffffffffffffffffffff1673ffffffffffffffffffffffffffffffffffffffff1681526020019081526020016000209182610929929190611d0b565b508273ffffffffffffffffffffffffffffffffffffffff16847ff20afd7b032307b01752ee91e3f6a4b83a5b4ab631f9ab279322fd45634382c060405160405180910390a350505050565b3373ffffffffffffffffffffffffffffffffffffffff166001600084815260200190815260200160002060000160009054906101000a900473ffffffffffffffffffffffffffffffffffffffff1673ffffffffffffffffffffffffffffffffffffffff1614610a18576040517f08c379a0000000000000000000000000000000000000000000000000000000008152600401610a0f90611c85565b60405180910390fd5b6002600083815260200190815260200160002060008273ffffffffffffffffffffffffffffffffffffffff1673ffffffffffffffffffffffffffffffffffffffff1681526020019081526020016000206000610a74919061120d565b8073ffffffffffffffffffffffffffffffffffffffff16827fe7906b77ea165c70ad8268ce5b59b778a198edf9c1ae4118378eefdc76fce5f460405160405180910390a35050565b60016020528060005260406000206000915090508060000160009054906101000a900473ffffffffffffffffffffffffffffffffffffffff1690806001018054610b0590611881565b80601f0160208091040260200160405190810160405280929190818152602001828054610b3190611881565b8015610b7e5780601f10610b5357610100808354040283529160200191610b7e565b820191906000526020600020905b815481529060010190602001808311610b6157829003601f168201915b505050505090806002015490806003018054610b9990611881565b80601f0160208091040260200160405190810160405280929190818152602001828054610bc590611881565b8015610c125780601f10610be757610100808354040283529160200191610c12565b820191906000526020600020905b815481529060010190602001808311610bf557829003601f168201915b5050505050908060040154905085565b600080600084815260200190815260200160002060000160008373ffffffffffffffffffffffffffffffffffffffff1673ffffffffffffffffffffffffffffffffffffffff16815260200190815260200160002060009054906101000a900460ff16905092915050565b6000801b81565b610c9c82610371565b610ca581610d42565b610caf8383610e3e565b505050565b7f5b8b380b1c48963186c539f7406268ddbde5178d20526fbfbe57a758a7b86afd81565b60007f01ffc9a7000000000000000000000000000000000000000000000000000000007bffffffffffffffffffffffffffffffffffffffffffffffffffffffff1916827bffffffffffffffffffffffffffffffffffffffffffffffffffffffff1916149050919050565b610d5381610d4e610e36565b610f1f565b50565b610d608282610c22565b610e3257600160008084815260200190815260200160002060000160008373ffffffffffffffffffffffffffffffffffffffff1673ffffffffffffffffffffffffffffffffffffffff16815260200190815260200160002060006101000a81548160ff021916908315150217905550610dd7610e36565b73ffffffffffffffffffffffffffffffffffffffff168173ffffffffffffffffffffffffffffffffffffffff16837f2f8788117e7eff1d82e926ec794901d17c78024a50270940304540a733656f0d60405160405180910390a45b5050565b600033905090565b610e488282610c22565b15610f1b57600080600084815260200190815260200160002060000160008373ffffffffffffffffffffffffffffffffffffffff1673ffffffffffffffffffffffffffffffffffffffff16815260200190815260200160002060006101000a81548160ff021916908315150217905550610ec0610e36565b73ffffffffffffffffffffffffffffffffffffffff168173ffffffffffffffffffffffffffffffffffffffff16837ff6391f5c32d9c69d2a47ea670b442974b53935d1edc7fd64eb21e047a839171b60405160405180910390a45b5050565b610f298282610c22565b610fa057610f3681610fa4565b610f448360001c6020610fd1565b604051602001610f55929190611eaf565b6040516020818303038152906040526040517f08c379a0000000000000000000000000000000000000000000000000000000008152600401610f979190611ee9565b60405180910390fd5b5050565b6060610fca8273ffffffffffffffffffffffffffffffffffffffff16601460ff16610fd1565b9050919050565b606060006002836002610fe49190611f3a565b610fee9190611f7c565b67ffffffffffffffff8111156110075761100661191e565b5b6040519080825280601f01601f1916602001820160405280156110395781602001600182028036833780820191505090505b5090507f30000000000000000000000000000000000000000000000000000000000000008160008151811061107157611070611fb0565b5b60200101907effffffffffffffffffffffffffffffffffffffffffffffffffffffffffffff1916908160001a9053507f7800000000000000000000000000000000000000000000000000000000000000816001815181106110d5576110d4611fb0565b5b60200101907effffffffffffffffffffffffffffffffffffffffffffffffffffffffffffff1916908160001a905350600060018460026111159190611f3a565b61111f9190611f7c565b90505b60018111156111bf577f3031323334353637383961626364656600000000000000000000000000000000600f86166010811061116157611160611fb0565b5b1a60f81b82828151811061117857611177611fb0565b5b60200101907effffffffffffffffffffffffffffffffffffffffffffffffffffffffffffff1916908160001a905350600485901c9450806111b890611fdf565b9050611122565b5060008414611203576040517f08c379a00000000000000000000000000000000000000000000000000000000081526004016111fa90612054565b60405180910390fd5b8091505092915050565b50805461121990611881565b6000825580601f1061122b575061124a565b601f016020900490600052602060002090810190611249919061124d565b5b50565b5b8082111561126657600081600090555060010161124e565b5090565b600080fd5b600080fd5b60007fffffffff0000000000000000000000000000000000000000000000000000000082169050919050565b6112a981611274565b81146112b457600080fd5b50565b6000813590506112c6816112a0565b92915050565b6000602082840312156112e2576112e161126a565b5b60006112f0848285016112b7565b91505092915050565b60008115159050919050565b61130e816112f9565b82525050565b60006020820190506113296000830184611305565b92915050565b6000819050919050565b6113428161132f565b811461134d57600080fd5b50565b60008135905061135f81611339565b92915050565b60006020828403121561137b5761137a61126a565b5b600061138984828501611350565b91505092915050565b61139b8161132f565b82525050565b60006020820190506113b66000830184611392565b92915050565b600073ffffffffffffffffffffffffffffffffffffffff82169050919050565b60006113e7826113bc565b9050919050565b6113f7816113dc565b811461140257600080fd5b50565b600081359050611414816113ee565b92915050565b600080604083850312156114315761143061126a565b5b600061143f85828601611350565b925050602061145085828601611405565b9150509250929050565b600081519050919050565b600082825260208201905092915050565b60005b83811015611494578082015181840152602081019050611479565b60008484015250505050565b6000601f19601f8301169050919050565b60006114bc8261145a565b6114c68185611465565b93506114d6818560208601611476565b6114df816114a0565b840191505092915050565b6000602082019050818103600083015261150481846114b1565b905092915050565b600080fd5b600080fd5b600080fd5b60008083601f8401126115315761153061150c565b5b8235905067ffffffffffffffff81111561154e5761154d611511565b5b60208301915083600182028301111561156a57611569611516565b5b9250929050565b6000806000806000806080878903121561158e5761158d61126a565b5b600061159c89828a01611350565b965050602087013567ffffffffffffffff8111156115bd576115bc61126f565b5b6115c989828a0161151b565b955095505060406115dc89828a01611350565b935050606087013567ffffffffffffffff8111156115fd576115fc61126f565b5b61160989828a0161151b565b92509250509295509295509295565b60008083601f84011261162e5761162d61150c565b5b8235905067ffffffffffffffff81111561164b5761164a611511565b5b60208301915083600182028301111561166757611666611516565b5b9250929050565b600080600080606085870312156116885761168761126a565b5b600061169687828801611350565b94505060206116a787828801611405565b935050604085013567ffffffffffffffff8111156116c8576116c761126f565b5b6116d487828801611618565b925092505092959194509250565b6116eb816113dc565b82525050565b600081519050919050565b600082825260208201905092915050565b6000611718826116f1565b61172281856116fc565b9350611732818560208601611476565b61173b816114a0565b840191505092915050565b6000819050919050565b61175981611746565b82525050565b600060a08201905061177460008301886116e2565b8181036020830152611786818761170d565b90506117956040830186611392565b81810360608301526117a7818561170d565b90506117b66080830184611750565b9695505050505050565b7f416363657373436f6e74726f6c3a2063616e206f6e6c792072656e6f756e636560008201527f20726f6c657320666f722073656c660000000000000000000000000000000000602082015250565b600061181c602f836116fc565b9150611827826117c0565b604082019050919050565b6000602082019050818103600083015261184b8161180f565b9050919050565b7f4e487b7100000000000000000000000000000000000000000000000000000000600052602260045260246000fd5b6000600282049050600182168061189957607f821691505b6020821081036118ac576118ab611852565b5b50919050565b7f6578697374730000000000000000000000000000000000000000000000000000600082015250565b60006118e86006836116fc565b91506118f3826118b2565b602082019050919050565b60006020820190508181036000830152611917816118db565b9050919050565b7f4e487b7100000000000000000000000000000000000000000000000000000000600052604160045260246000fd5b60008190508160005260206000209050919050565b60006020601f8301049050919050565b600082821b905092915050565b6000600883026119af7fffffffffffffffffffffffffffffffffffffffffffffffffffffffffffffffff82611972565b6119b98683611972565b95508019841693508086168417925050509392505050565b6000819050919050565b60006119f66119f16119ec84611746565b6119d1565b611746565b9050919050565b6000819050919050565b611a10836119db565b611a24611a1c826119fd565b84845461197f565b825550505050565b600090565b611a39611a2c565b611a44818484611a07565b505050565b5b81811015611a6857611a5d600082611a31565b600181019050611a4a565b5050565b601f821115611aad57611a7e8161194d565b611a8784611962565b81016020851015611a96578190505b611aaa611aa285611962565b830182611a49565b50505b505050565b600082821c905092915050565b6000611ad060001984600802611ab2565b1980831691505092915050565b6000611ae98383611abf565b9150826002028217905092915050565b611b02826116f1565b67ffffffffffffffff811115611b1b57611b1a61191e565b5b611b258254611881565b611b30828285611a6c565b600060209050601f831160018114611b635760008415611b51578287015190505b611b5b8582611add565b865550611bc3565b601f198416611b718661194d565b60005b82811015611b9957848901518255600182019150602085019450602081019050611b74565b86831015611bb65784890151611bb2601f891682611abf565b8355505b6001600288020188555050505b505050505050565b82818337600083830152505050565b6000611be683856116fc565b9350611bf3838584611bcb565b611bfc836114a0565b840190509392505050565b60006040820190508181036000830152611c22818587611bda565b9050611c316020830184611392565b949350505050565b7f6e6f74206f776e65720000000000000000000000000000000000000000000000600082015250565b6000611c6f6009836116fc565b9150611c7a82611c39565b602082019050919050565b60006020820190508181036000830152611c9e81611c62565b9050919050565b600082905092915050565b60008190508160005260206000209050919050565b601f821115611d0657611cd781611cb0565b611ce084611962565b81016020851015611cef578190505b611d03611cfb85611962565b830182611a49565b50505b505050565b611d158383611ca5565b67ffffffffffffffff811115611d2e57611d2d61191e565b5b611d388254611881565b611d43828285611cc5565b6000601f831160018114611d725760008415611d60578287013590505b611d6a8582611add565b865550611dd2565b601f198416611d8086611cb0565b60005b82811015611da857848901358255600182019150602085019450602081019050611d83565b86831015611dc55784890135611dc1601f891682611abf565b8355505b6001600288020188555050505b50505050505050565b600081905092915050565b7f416363657373436f6e74726f6c3a206163636f756e7420000000000000000000600082015250565b6000611e1c601783611ddb565b9150611e2782611de6565b601782019050919050565b6000611e3d826116f1565b611e478185611ddb565b9350611e57818560208601611476565b80840191505092915050565b7f206973206d697373696e6720726f6c6520000000000000000000000000000000600082015250565b6000611e99601183611ddb565b9150611ea482611e63565b601182019050919050565b6000611eba82611e0f565b9150611ec68285611e32565b9150611ed182611e8c565b9150611edd8284611e32565b91508190509392505050565b60006020820190508181036000830152611f03818461170d565b905092915050565b7f4e487b7100000000000000000000000000000000000000000000000000000000600052601160045260246000fd5b6000611f4582611746565b9150611f5083611746565b9250828202611f5e81611746565b91508282048414831517611f7557611f74611f0b565b5b5092915050565b6000611f8782611746565b9150611f9283611746565b9250828201905080821115611faa57611fa9611f0b565b5b92915050565b7f4e487b7100000000000000000000000000000000000000000000000000000000600052603260045260246000fd5b6000611fea82611746565b915060008203611ffd57611ffc611f0b565b5b600182039050919050565b7f537472696e67733a20686578206c656e67746820696e73756666696369656e74600082015250565b600061203e6020836116fc565b915061204982612008565b602082019050919050565b6000602082019050818103600083015261206d81612031565b905091905056fea2646970667358221220769c3147bcbea75ecdc703e7fb809ccf8bae981de0171f5500421d31213514ee64736f6c63430008140033","opcodes":"PUSH1 0x80 PUSH1 0x40 MSTORE CALLVALUE DUP1 ISZERO PUSH3 0x11 JUMPI PUSH1 0x0 DUP1 REVERT JUMPDEST POP PUSH1 0x40 MLOAD PUSH3 0x2400 CODESIZE SUB DUP1 PUSH3 0x2400 DUP4 CODECOPY DUP2 DUP2 ADD PUSH1 0x40 MSTORE DUP2 ADD SWAP1 PUSH3 0x37 SWAP2 SWAP1 PUSH3 0x314 JUMP JUMPDEST PUSH3 0x89 PUSH1 0x0 DUP1 SHL PUSH1 0x0 PUSH20 0xFFFFFFFFFFFFFFFFFFFFFFFFFFFFFFFFFFFFFFFF AND DUP4 PUSH20 0xFFFFFFFFFFFFFFFFFFFFFFFFFFFFFFFFFFFFFFFF AND EQ PUSH3 0x7B JUMPI DUP3 PUSH3 0x7D JUMP JUMPDEST CALLER JUMPDEST PUSH3 0xC5 PUSH1 0x20 SHL PUSH1 0x20 SHR JUMP JUMPDEST PUSH3 0xBE PUSH32 0x5B8B380B1C48963186C539F7406268DDBDE5178D20526FBFBE57A758A7B86AFD PUSH1 0x0 DUP1 SHL PUSH3 0x1B6 PUSH1 0x20 SHL PUSH1 0x20 SHR JUMP JUMPDEST POP PUSH3 0x346 JUMP JUMPDEST PUSH3 0xD7 DUP3 DUP3 PUSH3 0x219 PUSH1 0x20 SHL PUSH1 0x20 SHR JUMP JUMPDEST PUSH3 0x1B2 JUMPI PUSH1 0x1 PUSH1 0x0 DUP1 DUP5 DUP2 MSTORE PUSH1 0x20 ADD SWAP1 DUP2 MSTORE PUSH1 0x20 ADD PUSH1 0x0 KECCAK256 PUSH1 0x0 ADD PUSH1 0x0 DUP4 PUSH20 0xFFFFFFFFFFFFFFFFFFFFFFFFFFFFFFFFFFFFFFFF AND PUSH20 0xFFFFFFFFFFFFFFFFFFFFFFFFFFFFFFFFFFFFFFFF AND DUP2 MSTORE PUSH1 0x20 ADD SWAP1 DUP2 MSTORE PUSH1 0x20 ADD PUSH1 0x0 KECCAK256 PUSH1 0x0 PUSH2 0x100 EXP DUP2 SLOAD DUP2 PUSH1 0xFF MUL NOT AND SWAP1 DUP4 ISZERO ISZERO MUL OR SWAP1 SSTORE POP PUSH3 0x157 PUSH3 0x283 PUSH1 0x20 SHL PUSH1 0x20 SHR JUMP JUMPDEST PUSH20 0xFFFFFFFFFFFFFFFFFFFFFFFFFFFFFFFFFFFFFFFF AND DUP2 PUSH20 0xFFFFFFFFFFFFFFFFFFFFFFFFFFFFFFFFFFFFFFFF AND DUP4 PUSH32 0x2F8788117E7EFF1D82E926EC794901D17C78024A50270940304540A733656F0D PUSH1 0x40 MLOAD PUSH1 0x40 MLOAD DUP1 SWAP2 SUB SWAP1 LOG4 JUMPDEST POP POP JUMP JUMPDEST PUSH1 0x0 PUSH3 0x1C9 DUP4 PUSH3 0x28B PUSH1 0x20 SHL PUSH1 0x20 SHR JUMP JUMPDEST SWAP1 POP DUP2 PUSH1 0x0 DUP1 DUP6 DUP2 MSTORE PUSH1 0x20 ADD SWAP1 DUP2 MSTORE PUSH1 0x20 ADD PUSH1 0x0 KECCAK256 PUSH1 0x1 ADD DUP2 SWAP1 SSTORE POP DUP2 DUP2 DUP5 PUSH32 0xBD79B86FFE0AB8E8776151514217CD7CACD52C909F66475C3AF44E129F0B00FF PUSH1 0x40 MLOAD PUSH1 0x40 MLOAD DUP1 SWAP2 SUB SWAP1 LOG4 POP POP POP JUMP JUMPDEST PUSH1 0x0 DUP1 PUSH1 0x0 DUP5 DUP2 MSTORE PUSH1 0x20 ADD SWAP1 DUP2 MSTORE PUSH1 0x20 ADD PUSH1 0x0 KECCAK256 PUSH1 0x0 ADD PUSH1 0x0 DUP4 PUSH20 0xFFFFFFFFFFFFFFFFFFFFFFFFFFFFFFFFFFFFFFFF AND PUSH20 0xFFFFFFFFFFFFFFFFFFFFFFFFFFFFFFFFFFFFFFFF AND DUP2 MSTORE PUSH1 0x20 ADD SWAP1 DUP2 MSTORE PUSH1 0x20 ADD PUSH1 0x0 KECCAK256 PUSH1 0x0 SWAP1 SLOAD SWAP1 PUSH2 0x100 EXP SWAP1 DIV PUSH1 0xFF AND SWAP1 POP SWAP3 SWAP2 POP POP JUMP JUMPDEST PUSH1 0x0 CALLER SWAP1 POP SWAP1 JUMP JUMPDEST PUSH1 0x0 DUP1 PUSH1 0x0 DUP4 DUP2 MSTORE PUSH1 0x20 ADD SWAP1 DUP2 MSTORE PUSH1 0x20 ADD PUSH1 0x0 KECCAK256 PUSH1 0x1 ADD SLOAD SWAP1 POP SWAP2 SWAP1 POP JUMP JUMPDEST PUSH1 0x0 DUP1 REVERT JUMPDEST PUSH1 0x0 PUSH20 0xFFFFFFFFFFFFFFFFFFFFFFFFFFFFFFFFFFFFFFFF DUP3 AND SWAP1 POP SWAP2 SWAP1 POP JUMP JUMPDEST PUSH1 0x0 PUSH3 0x2DC DUP3 PUSH3 0x2AF JUMP JUMPDEST SWAP1 POP SWAP2 SWAP1 POP JUMP JUMPDEST PUSH3 0x2EE DUP2 PUSH3 0x2CF JUMP JUMPDEST DUP2 EQ PUSH3 0x2FA JUMPI PUSH1 0x0 DUP1 REVERT JUMPDEST POP JUMP JUMPDEST PUSH1 0x0 DUP2 MLOAD SWAP1 POP PUSH3 0x30E DUP2 PUSH3 0x2E3 JUMP JUMPDEST SWAP3 SWAP2 POP POP JUMP JUMPDEST PUSH1 0x0 PUSH1 0x20 DUP3 DUP5 SUB SLT ISZERO PUSH3 0x32D JUMPI PUSH3 0x32C PUSH3 0x2AA JUMP JUMPDEST JUMPDEST PUSH1 0x0 PUSH3 0x33D DUP5 DUP3 DUP6 ADD PUSH3 0x2FD JUMP JUMPDEST SWAP2 POP POP SWAP3 SWAP2 POP POP JUMP JUMPDEST PUSH2 0x20AA DUP1 PUSH3 0x356 PUSH1 0x0 CODECOPY PUSH1 0x0 RETURN INVALID PUSH1 0x80 PUSH1 0x40 MSTORE CALLVALUE DUP1 ISZERO PUSH2 0x10 JUMPI PUSH1 0x0 DUP1 REVERT JUMPDEST POP PUSH1 0x4 CALLDATASIZE LT PUSH2 0xEA JUMPI PUSH1 0x0 CALLDATALOAD PUSH1 0xE0 SHR DUP1 PUSH4 0x8A81CED2 GT PUSH2 0x8C JUMPI DUP1 PUSH4 0x91D14854 GT PUSH2 0x66 JUMPI DUP1 PUSH4 0x91D14854 EQ PUSH2 0x26F JUMPI DUP1 PUSH4 0xA217FDDF EQ PUSH2 0x29F JUMPI DUP1 PUSH4 0xD547741F EQ PUSH2 0x2BD JUMPI DUP1 PUSH4 0xFE611A7C EQ PUSH2 0x2D9 JUMPI PUSH2 0xEA JUMP JUMPDEST DUP1 PUSH4 0x8A81CED2 EQ PUSH2 0x203 JUMPI DUP1 PUSH4 0x8D53B208 EQ PUSH2 0x21F JUMPI DUP1 PUSH4 0x912929DF EQ PUSH2 0x23B JUMPI PUSH2 0xEA JUMP JUMPDEST DUP1 PUSH4 0x36568ABE GT PUSH2 0xC8 JUMPI DUP1 PUSH4 0x36568ABE EQ PUSH2 0x16B JUMPI DUP1 PUSH4 0x7204608A EQ PUSH2 0x187 JUMPI DUP1 PUSH4 0x78037E89 EQ PUSH2 0x1B7 JUMPI DUP1 PUSH4 0x7BBC67D7 EQ PUSH2 0x1D3 JUMPI PUSH2 0xEA JUMP JUMPDEST DUP1 PUSH4 0x1FFC9A7 EQ PUSH2 0xEF JUMPI DUP1 PUSH4 0x248A9CA3 EQ PUSH2 0x11F JUMPI DUP1 PUSH4 0x2F2FF15D EQ PUSH2 0x14F JUMPI JUMPDEST PUSH1 0x0 DUP1 REVERT JUMPDEST PUSH2 0x109 PUSH1 0x4 DUP1 CALLDATASIZE SUB DUP2 ADD SWAP1 PUSH2 0x104 SWAP2 SWAP1 PUSH2 0x12CC JUMP JUMPDEST PUSH2 0x2F7 JUMP JUMPDEST PUSH1 0x40 MLOAD PUSH2 0x116 SWAP2 SWAP1 PUSH2 0x1314 JUMP JUMPDEST PUSH1 0x40 MLOAD DUP1 SWAP2 SUB SWAP1 RETURN JUMPDEST PUSH2 0x139 PUSH1 0x4 DUP1 CALLDATASIZE SUB DUP2 ADD SWAP1 PUSH2 0x134 SWAP2 SWAP1 PUSH2 0x1365 JUMP JUMPDEST PUSH2 0x371 JUMP JUMPDEST PUSH1 0x40 MLOAD PUSH2 0x146 SWAP2 SWAP1 PUSH2 0x13A1 JUMP JUMPDEST PUSH1 0x40 MLOAD DUP1 SWAP2 SUB SWAP1 RETURN JUMPDEST PUSH2 0x169 PUSH1 0x4 DUP1 CALLDATASIZE SUB DUP2 ADD SWAP1 PUSH2 0x164 SWAP2 SWAP1 PUSH2 0x141A JUMP JUMPDEST PUSH2 0x390 JUMP JUMPDEST STOP JUMPDEST PUSH2 0x185 PUSH1 0x4 DUP1 CALLDATASIZE SUB DUP2 ADD SWAP1 PUSH2 0x180 SWAP2 SWAP1 PUSH2 0x141A JUMP JUMPDEST PUSH2 0x3B1 JUMP JUMPDEST STOP JUMPDEST PUSH2 0x1A1 PUSH1 0x4 DUP1 CALLDATASIZE SUB DUP2 ADD SWAP1 PUSH2 0x19C SWAP2 SWAP1 PUSH2 0x141A JUMP JUMPDEST PUSH2 0x434 JUMP JUMPDEST PUSH1 0x40 MLOAD PUSH2 0x1AE SWAP2 SWAP1 PUSH2 0x14EA JUMP JUMPDEST PUSH1 0x40 MLOAD DUP1 SWAP2 SUB SWAP1 RETURN JUMPDEST PUSH2 0x1D1 PUSH1 0x4 DUP1 CALLDATASIZE SUB DUP2 ADD SWAP1 PUSH2 0x1CC SWAP2 SWAP1 PUSH2 0x1571 JUMP JUMPDEST PUSH2 0x4E1 JUMP JUMPDEST STOP JUMPDEST PUSH2 0x1ED PUSH1 0x4 DUP1 CALLDATASIZE SUB DUP2 ADD SWAP1 PUSH2 0x1E8 SWAP2 SWAP1 PUSH2 0x141A JUMP JUMPDEST PUSH2 0x743 JUMP JUMPDEST PUSH1 0x40 MLOAD PUSH2 0x1FA SWAP2 SWAP1 PUSH2 0x14EA JUMP JUMPDEST PUSH1 0x40 MLOAD DUP1 SWAP2 SUB SWAP1 RETURN JUMPDEST PUSH2 0x21D PUSH1 0x4 DUP1 CALLDATASIZE SUB DUP2 ADD SWAP1 PUSH2 0x218 SWAP2 SWAP1 PUSH2 0x166E JUMP JUMPDEST PUSH2 0x826 JUMP JUMPDEST STOP JUMPDEST PUSH2 0x239 PUSH1 0x4 DUP1 CALLDATASIZE SUB DUP2 ADD SWAP1 PUSH2 0x234 SWAP2 SWAP1 PUSH2 0x141A JUMP JUMPDEST PUSH2 0x974 JUMP JUMPDEST STOP JUMPDEST PUSH2 0x255 PUSH1 0x4 DUP1 CALLDATASIZE SUB DUP2 ADD SWAP1 PUSH2 0x250 SWAP2 SWAP1 PUSH2 0x1365 JUMP JUMPDEST PUSH2 0xABC JUMP JUMPDEST PUSH1 0x40 MLOAD PUSH2 0x266 SWAP6 SWAP5 SWAP4 SWAP3 SWAP2 SWAP1 PUSH2 0x175F JUMP JUMPDEST PUSH1 0x40 MLOAD DUP1 SWAP2 SUB SWAP1 RETURN JUMPDEST PUSH2 0x289 PUSH1 0x4 DUP1 CALLDATASIZE SUB DUP2 ADD SWAP1 PUSH2 0x284 SWAP2 SWAP1 PUSH2 0x141A JUMP JUMPDEST PUSH2 0xC22 JUMP JUMPDEST PUSH1 0x40 MLOAD PUSH2 0x296 SWAP2 SWAP1 PUSH2 0x1314 JUMP JUMPDEST PUSH1 0x40 MLOAD DUP1 SWAP2 SUB SWAP1 RETURN JUMPDEST PUSH2 0x2A7 PUSH2 0xC8C JUMP JUMPDEST PUSH1 0x40 MLOAD PUSH2 0x2B4 SWAP2 SWAP1 PUSH2 0x13A1 JUMP JUMPDEST PUSH1 0x40 MLOAD DUP1 SWAP2 SUB SWAP1 RETURN JUMPDEST PUSH2 0x2D7 PUSH1 0x4 DUP1 CALLDATASIZE SUB DUP2 ADD SWAP1 PUSH2 0x2D2 SWAP2 SWAP1 PUSH2 0x141A JUMP JUMPDEST PUSH2 0xC93 JUMP JUMPDEST STOP JUMPDEST PUSH2 0x2E1 PUSH2 0xCB4 JUMP JUMPDEST PUSH1 0x40 MLOAD PUSH2 0x2EE SWAP2 SWAP1 PUSH2 0x13A1 JUMP JUMPDEST PUSH1 0x40 MLOAD DUP1 SWAP2 SUB SWAP1 RETURN JUMPDEST PUSH1 0x0 PUSH32 0x7965DB0B00000000000000000000000000000000000000000000000000000000 PUSH28 0xFFFFFFFFFFFFFFFFFFFFFFFFFFFFFFFFFFFFFFFFFFFFFFFFFFFFFFFF NOT AND DUP3 PUSH28 0xFFFFFFFFFFFFFFFFFFFFFFFFFFFFFFFFFFFFFFFFFFFFFFFFFFFFFFFF NOT AND EQ DUP1 PUSH2 0x36A JUMPI POP PUSH2 0x369 DUP3 PUSH2 0xCD8 JUMP JUMPDEST JUMPDEST SWAP1 POP SWAP2 SWAP1 POP JUMP JUMPDEST PUSH1 0x0 DUP1 PUSH1 0x0 DUP4 DUP2 MSTORE PUSH1 0x20 ADD SWAP1 DUP2 MSTORE PUSH1 0x20 ADD PUSH1 0x0 KECCAK256 PUSH1 0x1 ADD SLOAD SWAP1 POP SWAP2 SWAP1 POP JUMP JUMPDEST PUSH2 0x399 DUP3 PUSH2 0x371 JUMP JUMPDEST PUSH2 0x3A2 DUP2 PUSH2 0xD42 JUMP JUMPDEST PUSH2 0x3AC DUP4 DUP4 PUSH2 0xD56 JUMP JUMPDEST POP POP POP JUMP JUMPDEST PUSH2 0x3B9 PUSH2 0xE36 JUMP JUMPDEST PUSH20 0xFFFFFFFFFFFFFFFFFFFFFFFFFFFFFFFFFFFFFFFF AND DUP2 PUSH20 0xFFFFFFFFFFFFFFFFFFFFFFFFFFFFFFFFFFFFFFFF AND EQ PUSH2 0x426 JUMPI PUSH1 0x40 MLOAD PUSH32 0x8C379A000000000000000000000000000000000000000000000000000000000 DUP2 MSTORE PUSH1 0x4 ADD PUSH2 0x41D SWAP1 PUSH2 0x1832 JUMP JUMPDEST PUSH1 0x40 MLOAD DUP1 SWAP2 SUB SWAP1 REVERT JUMPDEST PUSH2 0x430 DUP3 DUP3 PUSH2 0xE3E JUMP JUMPDEST POP POP JUMP JUMPDEST PUSH1 0x2 PUSH1 0x20 MSTORE DUP2 PUSH1 0x0 MSTORE PUSH1 0x40 PUSH1 0x0 KECCAK256 PUSH1 0x20 MSTORE DUP1 PUSH1 0x0 MSTORE PUSH1 0x40 PUSH1 0x0 KECCAK256 PUSH1 0x0 SWAP2 POP SWAP2 POP POP DUP1 SLOAD PUSH2 0x460 SWAP1 PUSH2 0x1881 JUMP JUMPDEST DUP1 PUSH1 0x1F ADD PUSH1 0x20 DUP1 SWAP2 DIV MUL PUSH1 0x20 ADD PUSH1 0x40 MLOAD SWAP1 DUP2 ADD PUSH1 0x40 MSTORE DUP1 SWAP3 SWAP2 SWAP1 DUP2 DUP2 MSTORE PUSH1 0x20 ADD DUP3 DUP1 SLOAD PUSH2 0x48C SWAP1 PUSH2 0x1881 JUMP JUMPDEST DUP1 ISZERO PUSH2 0x4D9 JUMPI DUP1 PUSH1 0x1F LT PUSH2 0x4AE JUMPI PUSH2 0x100 DUP1 DUP4 SLOAD DIV MUL DUP4 MSTORE SWAP2 PUSH1 0x20 ADD SWAP2 PUSH2 0x4D9 JUMP JUMPDEST DUP3 ADD SWAP2 SWAP1 PUSH1 0x0 MSTORE PUSH1 0x20 PUSH1 0x0 KECCAK256 SWAP1 JUMPDEST DUP2 SLOAD DUP2 MSTORE SWAP1 PUSH1 0x1 ADD SWAP1 PUSH1 0x20 ADD DUP1 DUP4 GT PUSH2 0x4BC JUMPI DUP3 SWAP1 SUB PUSH1 0x1F AND DUP3 ADD SWAP2 JUMPDEST POP POP POP POP POP DUP2 JUMP JUMPDEST PUSH1 0x0 PUSH20 0xFFFFFFFFFFFFFFFFFFFFFFFFFFFFFFFFFFFFFFFF AND PUSH1 0x1 PUSH1 0x0 DUP9 DUP2 MSTORE PUSH1 0x20 ADD SWAP1 DUP2 MSTORE PUSH1 0x20 ADD PUSH1 0x0 KECCAK256 PUSH1 0x0 ADD PUSH1 0x0 SWAP1 SLOAD SWAP1 PUSH2 0x100 EXP SWAP1 DIV PUSH20 0xFFFFFFFFFFFFFFFFFFFFFFFFFFFFFFFFFFFFFFFF AND PUSH20 0xFFFFFFFFFFFFFFFFFFFFFFFFFFFFFFFFFFFFFFFF AND EQ PUSH2 0x586 JUMPI PUSH1 0x40 MLOAD PUSH32 0x8C379A000000000000000000000000000000000000000000000000000000000 DUP2 MSTORE PUSH1 0x4 ADD PUSH2 0x57D SWAP1 PUSH2 0x18FE JUMP JUMPDEST PUSH1 0x40 MLOAD DUP1 SWAP2 SUB SWAP1 REVERT JUMPDEST PUSH1 0x40 MLOAD DUP1 PUSH1 0xA0 ADD PUSH1 0x40 MSTORE DUP1 CALLER PUSH20 0xFFFFFFFFFFFFFFFFFFFFFFFFFFFFFFFFFFFFFFFF AND DUP2 MSTORE PUSH1 0x20 ADD DUP7 DUP7 DUP1 DUP1 PUSH1 0x1F ADD PUSH1 0x20 DUP1 SWAP2 DIV MUL PUSH1 0x20 ADD PUSH1 0x40 MLOAD SWAP1 DUP2 ADD PUSH1 0x40 MSTORE DUP1 SWAP4 SWAP3 SWAP2 SWAP1 DUP2 DUP2 MSTORE PUSH1 0x20 ADD DUP4 DUP4 DUP1 DUP3 DUP5 CALLDATACOPY PUSH1 0x0 DUP2 DUP5 ADD MSTORE PUSH1 0x1F NOT PUSH1 0x1F DUP3 ADD AND SWAP1 POP DUP1 DUP4 ADD SWAP3 POP POP POP POP POP POP POP DUP2 MSTORE PUSH1 0x20 ADD DUP5 DUP2 MSTORE PUSH1 0x20 ADD DUP4 DUP4 DUP1 DUP1 PUSH1 0x1F ADD PUSH1 0x20 DUP1 SWAP2 DIV MUL PUSH1 0x20 ADD PUSH1 0x40 MLOAD SWAP1 DUP2 ADD PUSH1 0x40 MSTORE DUP1 SWAP4 SWAP3 SWAP2 SWAP1 DUP2 DUP2 MSTORE PUSH1 0x20 ADD DUP4 DUP4 DUP1 DUP3 DUP5 CALLDATACOPY PUSH1 0x0 DUP2 DUP5 ADD MSTORE PUSH1 0x1F NOT PUSH1 0x1F DUP3 ADD AND SWAP1 POP DUP1 DUP4 ADD SWAP3 POP POP POP POP POP POP POP DUP2 MSTORE PUSH1 0x20 ADD TIMESTAMP DUP2 MSTORE POP PUSH1 0x1 PUSH1 0x0 DUP9 DUP2 MSTORE PUSH1 0x20 ADD SWAP1 DUP2 MSTORE PUSH1 0x20 ADD PUSH1 0x0 KECCAK256 PUSH1 0x0 DUP3 ADD MLOAD DUP2 PUSH1 0x0 ADD PUSH1 0x0 PUSH2 0x100 EXP DUP2 SLOAD DUP2 PUSH20 0xFFFFFFFFFFFFFFFFFFFFFFFFFFFFFFFFFFFFFFFF MUL NOT AND SWAP1 DUP4 PUSH20 0xFFFFFFFFFFFFFFFFFFFFFFFFFFFFFFFFFFFFFFFF AND MUL OR SWAP1 SSTORE POP PUSH1 0x20 DUP3 ADD MLOAD DUP2 PUSH1 0x1 ADD SWAP1 DUP2 PUSH2 0x6BA SWAP2 SWAP1 PUSH2 0x1AF9 JUMP JUMPDEST POP PUSH1 0x40 DUP3 ADD MLOAD DUP2 PUSH1 0x2 ADD SSTORE PUSH1 0x60 DUP3 ADD MLOAD DUP2 PUSH1 0x3 ADD SWAP1 DUP2 PUSH2 0x6DA SWAP2 SWAP1 PUSH2 0x1AF9 JUMP JUMPDEST POP PUSH1 0x80 DUP3 ADD MLOAD DUP2 PUSH1 0x4 ADD SSTORE SWAP1 POP POP CALLER PUSH20 0xFFFFFFFFFFFFFFFFFFFFFFFFFFFFFFFFFFFFFFFF AND DUP7 PUSH32 0xB13F804C30563E6530AF8C8714F39CE7E0A3E04D1857F00E1335D7D7DCD888D7 DUP8 DUP8 DUP8 PUSH1 0x40 MLOAD PUSH2 0x733 SWAP4 SWAP3 SWAP2 SWAP1 PUSH2 0x1C07 JUMP JUMPDEST PUSH1 0x40 MLOAD DUP1 SWAP2 SUB SWAP1 LOG3 POP POP POP POP POP POP JUMP JUMPDEST PUSH1 0x60 PUSH1 0x2 PUSH1 0x0 DUP5 DUP2 MSTORE PUSH1 0x20 ADD SWAP1 DUP2 MSTORE PUSH1 0x20 ADD PUSH1 0x0 KECCAK256 PUSH1 0x0 DUP4 PUSH20 0xFFFFFFFFFFFFFFFFFFFFFFFFFFFFFFFFFFFFFFFF AND PUSH20 0xFFFFFFFFFFFFFFFFFFFFFFFFFFFFFFFFFFFFFFFF AND DUP2 MSTORE PUSH1 0x20 ADD SWAP1 DUP2 MSTORE PUSH1 0x20 ADD PUSH1 0x0 KECCAK256 DUP1 SLOAD PUSH2 0x7A0 SWAP1 PUSH2 0x1881 JUMP JUMPDEST DUP1 PUSH1 0x1F ADD PUSH1 0x20 DUP1 SWAP2 DIV MUL PUSH1 0x20 ADD PUSH1 0x40 MLOAD SWAP1 DUP2 ADD PUSH1 0x40 MSTORE DUP1 SWAP3 SWAP2 SWAP1 DUP2 DUP2 MSTORE PUSH1 0x20 ADD DUP3 DUP1 SLOAD PUSH2 0x7CC SWAP1 PUSH2 0x1881 JUMP JUMPDEST DUP1 ISZERO PUSH2 0x819 JUMPI DUP1 PUSH1 0x1F LT PUSH2 0x7EE JUMPI PUSH2 0x100 DUP1 DUP4 SLOAD DIV MUL DUP4 MSTORE SWAP2 PUSH1 0x20 ADD SWAP2 PUSH2 0x819 JUMP JUMPDEST DUP3 ADD SWAP2 SWAP1 PUSH1 0x0 MSTORE PUSH1 0x20 PUSH1 0x0 KECCAK256 SWAP1 JUMPDEST DUP2 SLOAD DUP2 MSTORE SWAP1 PUSH1 0x1 ADD SWAP1 PUSH1 0x20 ADD DUP1 DUP4 GT PUSH2 0x7FC JUMPI DUP3 SWAP1 SUB PUSH1 0x1F AND DUP3 ADD SWAP2 JUMPDEST POP POP POP POP POP SWAP1 POP SWAP3 SWAP2 POP POP JUMP JUMPDEST CALLER PUSH20 0xFFFFFFFFFFFFFFFFFFFFFFFFFFFFFFFFFFFFFFFF AND PUSH1 0x1 PUSH1 0x0 DUP7 DUP2 MSTORE PUSH1 0x20 ADD SWAP1 DUP2 MSTORE PUSH1 0x20 ADD PUSH1 0x0 KECCAK256 PUSH1 0x0 ADD PUSH1 0x0 SWAP1 SLOAD SWAP1 PUSH2 0x100 EXP SWAP1 DIV PUSH20 0xFFFFFFFFFFFFFFFFFFFFFFFFFFFFFFFFFFFFFFFF AND PUSH20 0xFFFFFFFFFFFFFFFFFFFFFFFFFFFFFFFFFFFFFFFF AND EQ PUSH2 0x8CA JUMPI PUSH1 0x40 MLOAD PUSH32 0x8C379A000000000000000000000000000000000000000000000000000000000 DUP2 MSTORE PUSH1 0x4 ADD PUSH2 0x8C1 SWAP1 PUSH2 0x1C85 JUMP JUMPDEST PUSH1 0x40 MLOAD DUP1 SWAP2 SUB SWAP1 REVERT JUMPDEST DUP2 DUP2 PUSH1 0x2 PUSH1 0x0 DUP8 DUP2 MSTORE PUSH1 0x20 ADD SWAP1 DUP2 MSTORE PUSH1 0x20 ADD PUSH1 0x0 KECCAK256 PUSH1 0x0 DUP7 PUSH20 0xFFFFFFFFFFFFFFFFFFFFFFFFFFFFFFFFFFFFFFFF AND PUSH20 0xFFFFFFFFFFFFFFFFFFFFFFFFFFFFFFFFFFFFFFFF AND DUP2 MSTORE PUSH1 0x20 ADD SWAP1 DUP2 MSTORE PUSH1 0x20 ADD PUSH1 0x0 KECCAK256 SWAP2 DUP3 PUSH2 0x929 SWAP3 SWAP2 SWAP1 PUSH2 0x1D0B JUMP JUMPDEST POP DUP3 PUSH20 0xFFFFFFFFFFFFFFFFFFFFFFFFFFFFFFFFFFFFFFFF AND DUP5 PUSH32 0xF20AFD7B032307B01752EE91E3F6A4B83A5B4AB631F9AB279322FD45634382C0 PUSH1 0x40 MLOAD PUSH1 0x40 MLOAD DUP1 SWAP2 SUB SWAP1 LOG3 POP POP POP POP JUMP JUMPDEST CALLER PUSH20 0xFFFFFFFFFFFFFFFFFFFFFFFFFFFFFFFFFFFFFFFF AND PUSH1 0x1 PUSH1 0x0 DUP5 DUP2 MSTORE PUSH1 0x20 ADD SWAP1 DUP2 MSTORE PUSH1 0x20 ADD PUSH1 0x0 KECCAK256 PUSH1 0x0 ADD PUSH1 0x0 SWAP1 SLOAD SWAP1 PUSH2 0x100 EXP SWAP1 DIV PUSH20 0xFFFFFFFFFFFFFFFFFFFFFFFFFFFFFFFFFFFFFFFF AND PUSH20 0xFFFFFFFFFFFFFFFFFFFFFFFFFFFFFFFFFFFFFFFF AND EQ PUSH2 0xA18 JUMPI PUSH1 0x40 MLOAD PUSH32 0x8C379A000000000000000000000000000000000000000000000000000000000 DUP2 MSTORE PUSH1 0x4 ADD PUSH2 0xA0F SWAP1 PUSH2 0x1C85 JUMP JUMPDEST PUSH1 0x40 MLOAD DUP1 SWAP2 SUB SWAP1 REVERT JUMPDEST PUSH1 0x2 PUSH1 0x0 DUP4 DUP2 MSTORE PUSH1 0x20 ADD SWAP1 DUP2 MSTORE PUSH1 0x20 ADD PUSH1 0x0 KECCAK256 PUSH1 0x0 DUP3 PUSH20 0xFFFFFFFFFFFFFFFFFFFFFFFFFFFFFFFFFFFFFFFF AND PUSH20 0xFFFFFFFFFFFFFFFFFFFFFFFFFFFFFFFFFFFFFFFF AND DUP2 MSTORE PUSH1 0x20 ADD SWAP1 DUP2 MSTORE PUSH1 0x20 ADD PUSH1 0x0 KECCAK256 PUSH1 0x0 PUSH2 0xA74 SWAP2 SWAP1 PUSH2 0x120D JUMP JUMPDEST DUP1 PUSH20 0xFFFFFFFFFFFFFFFFFFFFFFFFFFFFFFFFFFFFFFFF AND DUP3 PUSH32 0xE7906B77EA165C70AD8268CE5B59B778A198EDF9C1AE4118378EEFDC76FCE5F4 PUSH1 0x40 MLOAD PUSH1 0x40 MLOAD DUP1 SWAP2 SUB SWAP1 LOG3 POP POP JUMP JUMPDEST PUSH1 0x1 PUSH1 0x20 MSTORE DUP1 PUSH1 0x0 MSTORE PUSH1 0x40 PUSH1 0x0 KECCAK256 PUSH1 0x0 SWAP2 POP SWAP1 POP DUP1 PUSH1 0x0 ADD PUSH1 0x0 SWAP1 SLOAD SWAP1 PUSH2 0x100 EXP SWAP1 DIV PUSH20 0xFFFFFFFFFFFFFFFFFFFFFFFFFFFFFFFFFFFFFFFF AND SWAP1 DUP1 PUSH1 0x1 ADD DUP1 SLOAD PUSH2 0xB05 SWAP1 PUSH2 0x1881 JUMP JUMPDEST DUP1 PUSH1 0x1F ADD PUSH1 0x20 DUP1 SWAP2 DIV MUL PUSH1 0x20 ADD PUSH1 0x40 MLOAD SWAP1 DUP2 ADD PUSH1 0x40 MSTORE DUP1 SWAP3 SWAP2 SWAP1 DUP2 DUP2 MSTORE PUSH1 0x20 ADD DUP3 DUP1 SLOAD PUSH2 0xB31 SWAP1 PUSH2 0x1881 JUMP JUMPDEST DUP1 ISZERO PUSH2 0xB7E JUMPI DUP1 PUSH1 0x1F LT PUSH2 0xB53 JUMPI PUSH2 0x100 DUP1 DUP4 SLOAD DIV MUL DUP4 MSTORE SWAP2 PUSH1 0x20 ADD SWAP2 PUSH2 0xB7E JUMP JUMPDEST DUP3 ADD SWAP2 SWAP1 PUSH1 0x0 MSTORE PUSH1 0x20 PUSH1 0x0 KECCAK256 SWAP1 JUMPDEST DUP2 SLOAD DUP2 MSTORE SWAP1 PUSH1 0x1 ADD SWAP1 PUSH1 0x20 ADD DUP1 DUP4 GT PUSH2 0xB61 JUMPI DUP3 SWAP1 SUB PUSH1 0x1F AND DUP3 ADD SWAP2 JUMPDEST POP POP POP POP POP SWAP1 DUP1 PUSH1 0x2 ADD SLOAD SWAP1 DUP1 PUSH1 0x3 ADD DUP1 SLOAD PUSH2 0xB99 SWAP1 PUSH2 0x1881 JUMP JUMPDEST DUP1 PUSH1 0x1F ADD PUSH1 0x20 DUP1 SWAP2 DIV MUL PUSH1 0x20 ADD PUSH1 0x40 MLOAD SWAP1 DUP2 ADD PUSH1 0x40 MSTORE DUP1 SWAP3 SWAP2 SWAP1 DUP2 DUP2 MSTORE PUSH1 0x20 ADD DUP3 DUP1 SLOAD PUSH2 0xBC5 SWAP1 PUSH2 0x1881 JUMP JUMPDEST DUP1 ISZERO PUSH2 0xC12 JUMPI DUP1 PUSH1 0x1F LT PUSH2 0xBE7 JUMPI PUSH2 0x100 DUP1 DUP4 SLOAD DIV MUL DUP4 MSTORE SWAP2 PUSH1 0x20 ADD SWAP2 PUSH2 0xC12 JUMP JUMPDEST DUP3 ADD SWAP2 SWAP1 PUSH1 0x0 MSTORE PUSH1 0x20 PUSH1 0x0 KECCAK256 SWAP1 JUMPDEST DUP2 SLOAD DUP2 MSTORE SWAP1 PUSH1 0x1 ADD SWAP1 PUSH1 0x20 ADD DUP1 DUP4 GT PUSH2 0xBF5 JUMPI DUP3 SWAP1 SUB PUSH1 0x1F AND DUP3 ADD SWAP2 JUMPDEST POP POP POP POP POP SWAP1 DUP1 PUSH1 0x4 ADD SLOAD SWAP1 POP DUP6 JUMP JUMPDEST PUSH1 0x0 DUP1 PUSH1 0x0 DUP5 DUP2 MSTORE PUSH1 0x20 ADD SWAP1 DUP2 MSTORE PUSH1 0x20 ADD PUSH1 0x0 KECCAK256 PUSH1 0x0 ADD PUSH1 0x0 DUP4 PUSH20 0xFFFFFFFFFFFFFFFFFFFFFFFFFFFFFFFFFFFFFFFF AND PUSH20 0xFFFFFFFFFFFFFFFFFFFFFFFFFFFFFFFFFFFFFFFF AND DUP2 MSTORE PUSH1 0x20 ADD SWAP1 DUP2 MSTORE PUSH1 0x20 ADD PUSH1 0x0 KECCAK256 PUSH1 0x0 SWAP1 SLOAD SWAP1 PUSH2 0x100 EXP SWAP1 DIV PUSH1 0xFF AND SWAP1 POP SWAP3 SWAP2 POP POP JUMP JUMPDEST PUSH1 0x0 DUP1 SHL DUP2 JUMP JUMPDEST PUSH2 0xC9C DUP3 PUSH2 0x371 JUMP JUMPDEST PUSH2 0xCA5 DUP2 PUSH2 0xD42 JUMP JUMPDEST PUSH2 0xCAF DUP4 DUP4 PUSH2 0xE3E JUMP JUMPDEST POP POP POP JUMP JUMPDEST PUSH32 0x5B8B380B1C48963186C539F7406268DDBDE5178D20526FBFBE57A758A7B86AFD DUP2 JUMP JUMPDEST PUSH1 0x0 PUSH32 0x1FFC9A700000000000000000000000000000000000000000000000000000000 PUSH28 0xFFFFFFFFFFFFFFFFFFFFFFFFFFFFFFFFFFFFFFFFFFFFFFFFFFFFFFFF NOT AND DUP3 PUSH28 0xFFFFFFFFFFFFFFFFFFFFFFFFFFFFFFFFFFFFFFFFFFFFFFFFFFFFFFFF NOT AND EQ SWAP1 POP SWAP2 SWAP1 POP JUMP JUMPDEST PUSH2 0xD53 DUP2 PUSH2 0xD4E PUSH2 0xE36 JUMP JUMPDEST PUSH2 0xF1F JUMP JUMPDEST POP JUMP JUMPDEST PUSH2 0xD60 DUP3 DUP3 PUSH2 0xC22 JUMP JUMPDEST PUSH2 0xE32 JUMPI PUSH1 0x1 PUSH1 0x0 DUP1 DUP5 DUP2 MSTORE PUSH1 0x20 ADD SWAP1 DUP2 MSTORE PUSH1 0x20 ADD PUSH1 0x0 KECCAK256 PUSH1 0x0 ADD PUSH1 0x0 DUP4 PUSH20 0xFFFFFFFFFFFFFFFFFFFFFFFFFFFFFFFFFFFFFFFF AND PUSH20 0xFFFFFFFFFFFFFFFFFFFFFFFFFFFFFFFFFFFFFFFF AND DUP2 MSTORE PUSH1 0x20 ADD SWAP1 DUP2 MSTORE PUSH1 0x20 ADD PUSH1 0x0 KECCAK256 PUSH1 0x0 PUSH2 0x100 EXP DUP2 SLOAD DUP2 PUSH1 0xFF MUL NOT AND SWAP1 DUP4 ISZERO ISZERO MUL OR SWAP1 SSTORE POP PUSH2 0xDD7 PUSH2 0xE36 JUMP JUMPDEST PUSH20 0xFFFFFFFFFFFFFFFFFFFFFFFFFFFFFFFFFFFFFFFF AND DUP2 PUSH20 0xFFFFFFFFFFFFFFFFFFFFFFFFFFFFFFFFFFFFFFFF AND DUP4 PUSH32 0x2F8788117E7EFF1D82E926EC794901D17C78024A50270940304540A733656F0D PUSH1 0x40 MLOAD PUSH1 0x40 MLOAD DUP1 SWAP2 SUB SWAP1 LOG4 JUMPDEST POP POP JUMP JUMPDEST PUSH1 0x0 CALLER SWAP1 POP SWAP1 JUMP JUMPDEST PUSH2 0xE48 DUP3 DUP3 PUSH2 0xC22 JUMP JUMPDEST ISZERO PUSH2 0xF1B JUMPI PUSH1 0x0 DUP1 PUSH1 0x0 DUP5 DUP2 MSTORE PUSH1 0x20 ADD SWAP1 DUP2 MSTORE PUSH1 0x20 ADD PUSH1 0x0 KECCAK256 PUSH1 0x0 ADD PUSH1 0x0 DUP4 PUSH20 0xFFFFFFFFFFFFFFFFFFFFFFFFFFFFFFFFFFFFFFFF AND PUSH20 0xFFFFFFFFFFFFFFFFFFFFFFFFFFFFFFFFFFFFFFFF AND DUP2 MSTORE PUSH1 0x20 ADD SWAP1 DUP2 MSTORE PUSH1 0x20 ADD PUSH1 0x0 KECCAK256 PUSH1 0x0 PUSH2 0x100 EXP DUP2 SLOAD DUP2 PUSH1 0xFF MUL NOT AND SWAP1 DUP4 ISZERO ISZERO MUL OR SWAP1 SSTORE POP PUSH2 0xEC0 PUSH2 0xE36 JUMP JUMPDEST PUSH20 0xFFFFFFFFFFFFFFFFFFFFFFFFFFFFFFFFFFFFFFFF AND DUP2 PUSH20 0xFFFFFFFFFFFFFFFFFFFFFFFFFFFFFFFFFFFFFFFF AND DUP4 PUSH32 0xF6391F5C32D9C69D2A47EA670B442974B53935D1EDC7FD64EB21E047A839171B PUSH1 0x40 MLOAD PUSH1 0x40 MLOAD DUP1 SWAP2 SUB SWAP1 LOG4 JUMPDEST POP POP JUMP JUMPDEST PUSH2 0xF29 DUP3 DUP3 PUSH2 0xC22 JUMP JUMPDEST PUSH2 0xFA0 JUMPI PUSH2 0xF36 DUP2 PUSH2 0xFA4 JUMP JUMPDEST PUSH2 0xF44 DUP4 PUSH1 0x0 SHR PUSH1 0x20 PUSH2 0xFD1 JUMP JUMPDEST PUSH1 0x40 MLOAD PUSH1 0x20 ADD PUSH2 0xF55 SWAP3 SWAP2 SWAP1 PUSH2 0x1EAF JUMP JUMPDEST PUSH1 0x40 MLOAD PUSH1 0x20 DUP2 DUP4 SUB SUB DUP2 MSTORE SWAP1 PUSH1 0x40 MSTORE PUSH1 0x40 MLOAD PUSH32 0x8C379A000000000000000000000000000000000000000000000000000000000 DUP2 MSTORE PUSH1 0x4 ADD PUSH2 0xF97 SWAP2 SWAP1 PUSH2 0x1EE9 JUMP JUMPDEST PUSH1 0x40 MLOAD DUP1 SWAP2 SUB SWAP1 REVERT JUMPDEST POP POP JUMP JUMPDEST PUSH1 0x60 PUSH2 0xFCA DUP3 PUSH20 0xFFFFFFFFFFFFFFFFFFFFFFFFFFFFFFFFFFFFFFFF AND PUSH1 0x14 PUSH1 0xFF AND PUSH2 0xFD1 JUMP JUMPDEST SWAP1 POP SWAP2 SWAP1 POP JUMP JUMPDEST PUSH1 0x60 PUSH1 0x0 PUSH1 0x2 DUP4 PUSH1 0x2 PUSH2 0xFE4 SWAP2 SWAP1 PUSH2 0x1F3A JUMP JUMPDEST PUSH2 0xFEE SWAP2 SWAP1 PUSH2 0x1F7C JUMP JUMPDEST PUSH8 0xFFFFFFFFFFFFFFFF DUP2 GT ISZERO PUSH2 0x1007 JUMPI PUSH2 0x1006 PUSH2 0x191E JUMP JUMPDEST JUMPDEST PUSH1 0x40 MLOAD SWAP1 DUP1 DUP3 MSTORE DUP1 PUSH1 0x1F ADD PUSH1 0x1F NOT AND PUSH1 0x20 ADD DUP3 ADD PUSH1 0x40 MSTORE DUP1 ISZERO PUSH2 0x1039 JUMPI DUP2 PUSH1 0x20 ADD PUSH1 0x1 DUP3 MUL DUP1 CALLDATASIZE DUP4 CALLDATACOPY DUP1 DUP3 ADD SWAP2 POP POP SWAP1 POP JUMPDEST POP SWAP1 POP PUSH32 0x3000000000000000000000000000000000000000000000000000000000000000 DUP2 PUSH1 0x0 DUP2 MLOAD DUP2 LT PUSH2 0x1071 JUMPI PUSH2 0x1070 PUSH2 0x1FB0 JUMP JUMPDEST JUMPDEST PUSH1 0x20 ADD ADD SWAP1 PUSH31 0xFFFFFFFFFFFFFFFFFFFFFFFFFFFFFFFFFFFFFFFFFFFFFFFFFFFFFFFFFFFFFF NOT AND SWAP1 DUP2 PUSH1 0x0 BYTE SWAP1 MSTORE8 POP PUSH32 0x7800000000000000000000000000000000000000000000000000000000000000 DUP2 PUSH1 0x1 DUP2 MLOAD DUP2 LT PUSH2 0x10D5 JUMPI PUSH2 0x10D4 PUSH2 0x1FB0 JUMP JUMPDEST JUMPDEST PUSH1 0x20 ADD ADD SWAP1 PUSH31 0xFFFFFFFFFFFFFFFFFFFFFFFFFFFFFFFFFFFFFFFFFFFFFFFFFFFFFFFFFFFFFF NOT AND SWAP1 DUP2 PUSH1 0x0 BYTE SWAP1 MSTORE8 POP PUSH1 0x0 PUSH1 0x1 DUP5 PUSH1 0x2 PUSH2 0x1115 SWAP2 SWAP1 PUSH2 0x1F3A JUMP JUMPDEST PUSH2 0x111F SWAP2 SWAP1 PUSH2 0x1F7C JUMP JUMPDEST SWAP1 POP JUMPDEST PUSH1 0x1 DUP2 GT ISZERO PUSH2 0x11BF JUMPI PUSH32 0x3031323334353637383961626364656600000000000000000000000000000000 PUSH1 0xF DUP7 AND PUSH1 0x10 DUP2 LT PUSH2 0x1161 JUMPI PUSH2 0x1160 PUSH2 0x1FB0 JUMP JUMPDEST JUMPDEST BYTE PUSH1 0xF8 SHL DUP3 DUP3 DUP2 MLOAD DUP2 LT PUSH2 0x1178 JUMPI PUSH2 0x1177 PUSH2 0x1FB0 JUMP JUMPDEST JUMPDEST PUSH1 0x20 ADD ADD SWAP1 PUSH31 0xFFFFFFFFFFFFFFFFFFFFFFFFFFFFFFFFFFFFFFFFFFFFFFFFFFFFFFFFFFFFFF NOT AND SWAP1 DUP2 PUSH1 0x0 BYTE SWAP1 MSTORE8 POP PUSH1 0x4 DUP6 SWAP1 SHR SWAP5 POP DUP1 PUSH2 0x11B8 SWAP1 PUSH2 0x1FDF JUMP JUMPDEST SWAP1 POP PUSH2 0x1122 JUMP JUMPDEST POP PUSH1 0x0 DUP5 EQ PUSH2 0x1203 JUMPI PUSH1 0x40 MLOAD PUSH32 0x8C379A000000000000000000000000000000000000000000000000000000000 DUP2 MSTORE PUSH1 0x4 ADD PUSH2 0x11FA SWAP1 PUSH2 0x2054 JUMP JUMPDEST PUSH1 0x40 MLOAD DUP1 SWAP2 SUB SWAP1 REVERT JUMPDEST DUP1 SWAP2 POP POP SWAP3 SWAP2 POP POP JUMP JUMPDEST POP DUP1 SLOAD PUSH2 0x1219 SWAP1 PUSH2 0x1881 JUMP JUMPDEST PUSH1 0x0 DUP3 SSTORE DUP1 PUSH1 0x1F LT PUSH2 0x122B JUMPI POP PUSH2 0x124A JUMP JUMPDEST PUSH1 0x1F ADD PUSH1 0x20 SWAP1 DIV SWAP1 PUSH1 0x0 MSTORE PUSH1 0x20 PUSH1 0x0 KECCAK256 SWAP1 DUP2 ADD SWAP1 PUSH2 0x1249 SWAP2 SWAP1 PUSH2 0x124D JUMP JUMPDEST JUMPDEST POP JUMP JUMPDEST JUMPDEST DUP1 DUP3 GT ISZERO PUSH2 0x1266 JUMPI PUSH1 0x0 DUP2 PUSH1 0x0 SWAP1 SSTORE POP PUSH1 0x1 ADD PUSH2 0x124E JUMP JUMPDEST POP SWAP1 JUMP JUMPDEST PUSH1 0x0 DUP1 REVERT JUMPDEST PUSH1 0x0 DUP1 REVERT JUMPDEST PUSH1 0x0 PUSH32 0xFFFFFFFF00000000000000000000000000000000000000000000000000000000 DUP3 AND SWAP1 POP SWAP2 SWAP1 POP JUMP JUMPDEST PUSH2 0x12A9 DUP2 PUSH2 0x1274 JUMP JUMPDEST DUP2 EQ PUSH2 0x12B4 JUMPI PUSH1 0x0 DUP1 REVERT JUMPDEST POP JUMP JUMPDEST PUSH1 0x0 DUP2 CALLDATALOAD SWAP1 POP PUSH2 0x12C6 DUP2 PUSH2 0x12A0 JUMP JUMPDEST SWAP3 SWAP2 POP POP JUMP JUMPDEST PUSH1 0x0 PUSH1 0x20 DUP3 DUP5 SUB SLT ISZERO PUSH2 0x12E2 JUMPI PUSH2 0x12E1 PUSH2 0x126A JUMP JUMPDEST JUMPDEST PUSH1 0x0 PUSH2 0x12F0 DUP5 DUP3 DUP6 ADD PUSH2 0x12B7 JUMP JUMPDEST SWAP2 POP POP SWAP3 SWAP2 POP POP JUMP JUMPDEST PUSH1 0x0 DUP2 ISZERO ISZERO SWAP1 POP SWAP2 SWAP1 POP JUMP JUMPDEST PUSH2 0x130E DUP2 PUSH2 0x12F9 JUMP JUMPDEST DUP3 MSTORE POP POP JUMP JUMPDEST PUSH1 0x0 PUSH1 0x20 DUP3 ADD SWAP1 POP PUSH2 0x1329 PUSH1 0x0 DUP4 ADD DUP5 PUSH2 0x1305 JUMP JUMPDEST SWAP3 SWAP2 POP POP JUMP JUMPDEST PUSH1 0x0 DUP2 SWAP1 POP SWAP2 SWAP1 POP JUMP JUMPDEST PUSH2 0x1342 DUP2 PUSH2 0x132F JUMP JUMPDEST DUP2 EQ PUSH2 0x134D JUMPI PUSH1 0x0 DUP1 REVERT JUMPDEST POP JUMP JUMPDEST PUSH1 0x0 DUP2 CALLDATALOAD SWAP1 POP PUSH2 0x135F DUP2 PUSH2 0x1339 JUMP JUMPDEST SWAP3 SWAP2 POP POP JUMP JUMPDEST PUSH1 0x0 PUSH1 0x20 DUP3 DUP5 SUB SLT ISZERO PUSH2 0x137B JUMPI PUSH2 0x137A PUSH2 0x126A JUMP JUMPDEST JUMPDEST PUSH1 0x0 PUSH2 0x1389 DUP5 DUP3 DUP6 ADD PUSH2 0x1350 JUMP JUMPDEST SWAP2 POP POP SWAP3 SWAP2 POP POP JUMP JUMPDEST PUSH2 0x139B DUP2 PUSH2 0x132F JUMP JUMPDEST DUP3 MSTORE POP POP JUMP JUMPDEST PUSH1 0x0 PUSH1 0x20 DUP3 ADD SWAP1 POP PUSH2 0x13B6 PUSH1 0x0 DUP4 ADD DUP5 PUSH2 0x1392 JUMP JUMPDEST SWAP3 SWAP2 POP POP JUMP JUMPDEST PUSH1 0x0 PUSH20 0xFFFFFFFFFFFFFFFFFFFFFFFFFFFFFFFFFFFFFFFF DUP3 AND SWAP1 POP SWAP2 SWAP1 POP JUMP JUMPDEST PUSH1 0x0 PUSH2 0x13E7 DUP3 PUSH2 0x13BC JUMP JUMPDEST SWAP1 POP SWAP2 SWAP1 POP JUMP JUMPDEST PUSH2 0x13F7 DUP2 PUSH2 0x13DC JUMP JUMPDEST DUP2 EQ PUSH2 0x1402 JUMPI PUSH1 0x0 DUP1 REVERT JUMPDEST POP JUMP JUMPDEST PUSH1 0x0 DUP2 CALLDATALOAD SWAP1 POP PUSH2 0x1414 DUP2 PUSH2 0x13EE JUMP JUMPDEST SWAP3 SWAP2 POP POP JUMP JUMPDEST PUSH1 0x0 DUP1 PUSH1 0x40 DUP4 DUP6 SUB SLT ISZERO PUSH2 0x1431 JUMPI PUSH2 0x1430 PUSH2 0x126A JUMP JUMPDEST JUMPDEST PUSH1 0x0 PUSH2 0x143F DUP6 DUP3 DUP7 ADD PUSH2 0x1350 JUMP JUMPDEST SWAP3 POP POP PUSH1 0x20 PUSH2 0x1450 DUP6 DUP3 DUP7 ADD PUSH2 0x1405 JUMP JUMPDEST SWAP2 POP POP SWAP3 POP SWAP3 SWAP1 POP JUMP JUMPDEST PUSH1 0x0 DUP2 MLOAD SWAP1 POP SWAP2 SWAP1 POP JUMP JUMPDEST PUSH1 0x0 DUP3 DUP3 MSTORE PUSH1 0x20 DUP3 ADD SWAP1 POP SWAP3 SWAP2 POP POP JUMP JUMPDEST PUSH1 0x0 JUMPDEST DUP4 DUP2 LT ISZERO PUSH2 0x1494 JUMPI DUP1 DUP3 ADD MLOAD DUP2 DUP5 ADD MSTORE PUSH1 0x20 DUP2 ADD SWAP1 POP PUSH2 0x1479 JUMP JUMPDEST PUSH1 0x0 DUP5 DUP5 ADD MSTORE POP POP POP POP JUMP JUMPDEST PUSH1 0x0 PUSH1 0x1F NOT PUSH1 0x1F DUP4 ADD AND SWAP1 POP SWAP2 SWAP1 POP JUMP JUMPDEST PUSH1 0x0 PUSH2 0x14BC DUP3 PUSH2 0x145A JUMP JUMPDEST PUSH2 0x14C6 DUP2 DUP6 PUSH2 0x1465 JUMP JUMPDEST SWAP4 POP PUSH2 0x14D6 DUP2 DUP6 PUSH1 0x20 DUP7 ADD PUSH2 0x1476 JUMP JUMPDEST PUSH2 0x14DF DUP2 PUSH2 0x14A0 JUMP JUMPDEST DUP5 ADD SWAP2 POP POP SWAP3 SWAP2 POP POP JUMP JUMPDEST PUSH1 0x0 PUSH1 0x20 DUP3 ADD SWAP1 POP DUP2 DUP2 SUB PUSH1 0x0 DUP4 ADD MSTORE PUSH2 0x1504 DUP2 DUP5 PUSH2 0x14B1 JUMP JUMPDEST SWAP1 POP SWAP3 SWAP2 POP POP JUMP JUMPDEST PUSH1 0x0 DUP1 REVERT JUMPDEST PUSH1 0x0 DUP1 REVERT JUMPDEST PUSH1 0x0 DUP1 REVERT JUMPDEST PUSH1 0x0 DUP1 DUP4 PUSH1 0x1F DUP5 ADD SLT PUSH2 0x1531 JUMPI PUSH2 0x1530 PUSH2 0x150C JUMP JUMPDEST JUMPDEST DUP3 CALLDATALOAD SWAP1 POP PUSH8 0xFFFFFFFFFFFFFFFF DUP2 GT ISZERO PUSH2 0x154E JUMPI PUSH2 0x154D PUSH2 0x1511 JUMP JUMPDEST JUMPDEST PUSH1 0x20 DUP4 ADD SWAP2 POP DUP4 PUSH1 0x1 DUP3 MUL DUP4 ADD GT ISZERO PUSH2 0x156A JUMPI PUSH2 0x1569 PUSH2 0x1516 JUMP JUMPDEST JUMPDEST SWAP3 POP SWAP3 SWAP1 POP JUMP JUMPDEST PUSH1 0x0 DUP1 PUSH1 0x0 DUP1 PUSH1 0x0 DUP1 PUSH1 0x80 DUP8 DUP10 SUB SLT ISZERO PUSH2 0x158E JUMPI PUSH2 0x158D PUSH2 0x126A JUMP JUMPDEST JUMPDEST PUSH1 0x0 PUSH2 0x159C DUP10 DUP3 DUP11 ADD PUSH2 0x1350 JUMP JUMPDEST SWAP7 POP POP PUSH1 0x20 DUP8 ADD CALLDATALOAD PUSH8 0xFFFFFFFFFFFFFFFF DUP2 GT ISZERO PUSH2 0x15BD JUMPI PUSH2 0x15BC PUSH2 0x126F JUMP JUMPDEST JUMPDEST PUSH2 0x15C9 DUP10 DUP3 DUP11 ADD PUSH2 0x151B JUMP JUMPDEST SWAP6 POP SWAP6 POP POP PUSH1 0x40 PUSH2 0x15DC DUP10 DUP3 DUP11 ADD PUSH2 0x1350 JUMP JUMPDEST SWAP4 POP POP PUSH1 0x60 DUP8 ADD CALLDATALOAD PUSH8 0xFFFFFFFFFFFFFFFF DUP2 GT ISZERO PUSH2 0x15FD JUMPI PUSH2 0x15FC PUSH2 0x126F JUMP JUMPDEST JUMPDEST PUSH2 0x1609 DUP10 DUP3 DUP11 ADD PUSH2 0x151B JUMP JUMPDEST SWAP3 POP SWAP3 POP POP SWAP3 SWAP6 POP SWAP3 SWAP6 POP SWAP3 SWAP6 JUMP JUMPDEST PUSH1 0x0 DUP1 DUP4 PUSH1 0x1F DUP5 ADD SLT PUSH2 0x162E JUMPI PUSH2 0x162D PUSH2 0x150C JUMP JUMPDEST JUMPDEST DUP3 CALLDATALOAD SWAP1 POP PUSH8 0xFFFFFFFFFFFFFFFF DUP2 GT ISZERO PUSH2 0x164B JUMPI PUSH2 0x164A PUSH2 0x1511 JUMP JUMPDEST JUMPDEST PUSH1 0x20 DUP4 ADD SWAP2 POP DUP4 PUSH1 0x1 DUP3 MUL DUP4 ADD GT ISZERO PUSH2 0x1667 JUMPI PUSH2 0x1666 PUSH2 0x1516 JUMP JUMPDEST JUMPDEST SWAP3 POP SWAP3 SWAP1 POP JUMP JUMPDEST PUSH1 0x0 DUP1 PUSH1 0x0 DUP1 PUSH1 0x60 DUP6 DUP8 SUB SLT ISZERO PUSH2 0x1688 JUMPI PUSH2 0x1687 PUSH2 0x126A JUMP JUMPDEST JUMPDEST PUSH1 0x0 PUSH2 0x1696 DUP8 DUP3 DUP9 ADD PUSH2 0x1350 JUMP JUMPDEST SWAP5 POP POP PUSH1 0x20 PUSH2 0x16A7 DUP8 DUP3 DUP9 ADD PUSH2 0x1405 JUMP JUMPDEST SWAP4 POP POP PUSH1 0x40 DUP6 ADD CALLDATALOAD PUSH8 0xFFFFFFFFFFFFFFFF DUP2 GT ISZERO PUSH2 0x16C8 JUMPI PUSH2 0x16C7 PUSH2 0x126F JUMP JUMPDEST JUMPDEST PUSH2 0x16D4 DUP8 DUP3 DUP9 ADD PUSH2 0x1618 JUMP JUMPDEST SWAP3 POP SWAP3 POP POP SWAP3 SWAP6 SWAP2 SWAP5 POP SWAP3 POP JUMP JUMPDEST PUSH2 0x16EB DUP2 PUSH2 0x13DC JUMP JUMPDEST DUP3 MSTORE POP POP JUMP JUMPDEST PUSH1 0x0 DUP2 MLOAD SWAP1 POP SWAP2 SWAP1 POP JUMP JUMPDEST PUSH1 0x0 DUP3 DUP3 MSTORE PUSH1 0x20 DUP3 ADD SWAP1 POP SWAP3 SWAP2 POP POP JUMP JUMPDEST PUSH1 0x0 PUSH2 0x1718 DUP3 PUSH2 0x16F1 JUMP JUMPDEST PUSH2 0x1722 DUP2 DUP6 PUSH2 0x16FC JUMP JUMPDEST SWAP4 POP PUSH2 0x1732 DUP2 DUP6 PUSH1 0x20 DUP7 ADD PUSH2 0x1476 JUMP JUMPDEST PUSH2 0x173B DUP2 PUSH2 0x14A0 JUMP JUMPDEST DUP5 ADD SWAP2 POP POP SWAP3 SWAP2 POP POP JUMP JUMPDEST PUSH1 0x0 DUP2 SWAP1 POP SWAP2 SWAP1 POP JUMP JUMPDEST PUSH2 0x1759 DUP2 PUSH2 0x1746 JUMP JUMPDEST DUP3 MSTORE POP POP JUMP JUMPDEST PUSH1 0x0 PUSH1 0xA0 DUP3 ADD SWAP1 POP PUSH2 0x1774 PUSH1 0x0 DUP4 ADD DUP9 PUSH2 0x16E2 JUMP JUMPDEST DUP2 DUP2 SUB PUSH1 0x20 DUP4 ADD MSTORE PUSH2 0x1786 DUP2 DUP8 PUSH2 0x170D JUMP JUMPDEST SWAP1 POP PUSH2 0x1795 PUSH1 0x40 DUP4 ADD DUP7 PUSH2 0x1392 JUMP JUMPDEST DUP2 DUP2 SUB PUSH1 0x60 DUP4 ADD MSTORE PUSH2 0x17A7 DUP2 DUP6 PUSH2 0x170D JUMP JUMPDEST SWAP1 POP PUSH2 0x17B6 PUSH1 0x80 DUP4 ADD DUP5 PUSH2 0x1750 JUMP JUMPDEST SWAP7 SWAP6 POP POP POP POP POP POP JUMP JUMPDEST PUSH32 0x416363657373436F6E74726F6C3A2063616E206F6E6C792072656E6F756E6365 PUSH1 0x0 DUP3 ADD MSTORE PUSH32 0x20726F6C657320666F722073656C660000000000000000000000000000000000 PUSH1 0x20 DUP3 ADD MSTORE POP JUMP JUMPDEST PUSH1 0x0 PUSH2 0x181C PUSH1 0x2F DUP4 PUSH2 0x16FC JUMP JUMPDEST SWAP2 POP PUSH2 0x1827 DUP3 PUSH2 0x17C0 JUMP JUMPDEST PUSH1 0x40 DUP3 ADD SWAP1 POP SWAP2 SWAP1 POP JUMP JUMPDEST PUSH1 0x0 PUSH1 0x20 DUP3 ADD SWAP1 POP DUP2 DUP2 SUB PUSH1 0x0 DUP4 ADD MSTORE PUSH2 0x184B DUP2 PUSH2 0x180F JUMP JUMPDEST SWAP1 POP SWAP2 SWAP1 POP JUMP JUMPDEST PUSH32 0x4E487B7100000000000000000000000000000000000000000000000000000000 PUSH1 0x0 MSTORE PUSH1 0x22 PUSH1 0x4 MSTORE PUSH1 0x24 PUSH1 0x0 REVERT JUMPDEST PUSH1 0x0 PUSH1 0x2 DUP3 DIV SWAP1 POP PUSH1 0x1 DUP3 AND DUP1 PUSH2 0x1899 JUMPI PUSH1 0x7F DUP3 AND SWAP2 POP JUMPDEST PUSH1 0x20 DUP3 LT DUP2 SUB PUSH2 0x18AC JUMPI PUSH2 0x18AB PUSH2 0x1852 JUMP JUMPDEST JUMPDEST POP SWAP2 SWAP1 POP JUMP JUMPDEST PUSH32 0x6578697374730000000000000000000000000000000000000000000000000000 PUSH1 0x0 DUP3 ADD MSTORE POP JUMP JUMPDEST PUSH1 0x0 PUSH2 0x18E8 PUSH1 0x6 DUP4 PUSH2 0x16FC JUMP JUMPDEST SWAP2 POP PUSH2 0x18F3 DUP3 PUSH2 0x18B2 JUMP JUMPDEST PUSH1 0x20 DUP3 ADD SWAP1 POP SWAP2 SWAP1 POP JUMP JUMPDEST PUSH1 0x0 PUSH1 0x20 DUP3 ADD SWAP1 POP DUP2 DUP2 SUB PUSH1 0x0 DUP4 ADD MSTORE PUSH2 0x1917 DUP2 PUSH2 0x18DB JUMP JUMPDEST SWAP1 POP SWAP2 SWAP1 POP JUMP JUMPDEST PUSH32 0x4E487B7100000000000000000000000000000000000000000000000000000000 PUSH1 0x0 MSTORE PUSH1 0x41 PUSH1 0x4 MSTORE PUSH1 0x24 PUSH1 0x0 REVERT JUMPDEST PUSH1 0x0 DUP2 SWAP1 POP DUP2 PUSH1 0x0 MSTORE PUSH1 0x20 PUSH1 0x0 KECCAK256 SWAP1 POP SWAP2 SWAP1 POP JUMP JUMPDEST PUSH1 0x0 PUSH1 0x20 PUSH1 0x1F DUP4 ADD DIV SWAP1 POP SWAP2 SWAP1 POP JUMP JUMPDEST PUSH1 0x0 DUP3 DUP3 SHL SWAP1 POP SWAP3 SWAP2 POP POP JUMP JUMPDEST PUSH1 0x0 PUSH1 0x8 DUP4 MUL PUSH2 0x19AF PUSH32 0xFFFFFFFFFFFFFFFFFFFFFFFFFFFFFFFFFFFFFFFFFFFFFFFFFFFFFFFFFFFFFFFF DUP3 PUSH2 0x1972 JUMP JUMPDEST PUSH2 0x19B9 DUP7 DUP4 PUSH2 0x1972 JUMP JUMPDEST SWAP6 POP DUP1 NOT DUP5 AND SWAP4 POP DUP1 DUP7 AND DUP5 OR SWAP3 POP POP POP SWAP4 SWAP3 POP POP POP JUMP JUMPDEST PUSH1 0x0 DUP2 SWAP1 POP SWAP2 SWAP1 POP JUMP JUMPDEST PUSH1 0x0 PUSH2 0x19F6 PUSH2 0x19F1 PUSH2 0x19EC DUP5 PUSH2 0x1746 JUMP JUMPDEST PUSH2 0x19D1 JUMP JUMPDEST PUSH2 0x1746 JUMP JUMPDEST SWAP1 POP SWAP2 SWAP1 POP JUMP JUMPDEST PUSH1 0x0 DUP2 SWAP1 POP SWAP2 SWAP1 POP JUMP JUMPDEST PUSH2 0x1A10 DUP4 PUSH2 0x19DB JUMP JUMPDEST PUSH2 0x1A24 PUSH2 0x1A1C DUP3 PUSH2 0x19FD JUMP JUMPDEST DUP5 DUP5 SLOAD PUSH2 0x197F JUMP JUMPDEST DUP3 SSTORE POP POP POP POP JUMP JUMPDEST PUSH1 0x0 SWAP1 JUMP JUMPDEST PUSH2 0x1A39 PUSH2 0x1A2C JUMP JUMPDEST PUSH2 0x1A44 DUP2 DUP5 DUP5 PUSH2 0x1A07 JUMP JUMPDEST POP POP POP JUMP JUMPDEST JUMPDEST DUP2 DUP2 LT ISZERO PUSH2 0x1A68 JUMPI PUSH2 0x1A5D PUSH1 0x0 DUP3 PUSH2 0x1A31 JUMP JUMPDEST PUSH1 0x1 DUP2 ADD SWAP1 POP PUSH2 0x1A4A JUMP JUMPDEST POP POP JUMP JUMPDEST PUSH1 0x1F DUP3 GT ISZERO PUSH2 0x1AAD JUMPI PUSH2 0x1A7E DUP2 PUSH2 0x194D JUMP JUMPDEST PUSH2 0x1A87 DUP5 PUSH2 0x1962 JUMP JUMPDEST DUP2 ADD PUSH1 0x20 DUP6 LT ISZERO PUSH2 0x1A96 JUMPI DUP2 SWAP1 POP JUMPDEST PUSH2 0x1AAA PUSH2 0x1AA2 DUP6 PUSH2 0x1962 JUMP JUMPDEST DUP4 ADD DUP3 PUSH2 0x1A49 JUMP JUMPDEST POP POP JUMPDEST POP POP POP JUMP JUMPDEST PUSH1 0x0 DUP3 DUP3 SHR SWAP1 POP SWAP3 SWAP2 POP POP JUMP JUMPDEST PUSH1 0x0 PUSH2 0x1AD0 PUSH1 0x0 NOT DUP5 PUSH1 0x8 MUL PUSH2 0x1AB2 JUMP JUMPDEST NOT DUP1 DUP4 AND SWAP2 POP POP SWAP3 SWAP2 POP POP JUMP JUMPDEST PUSH1 0x0 PUSH2 0x1AE9 DUP4 DUP4 PUSH2 0x1ABF JUMP JUMPDEST SWAP2 POP DUP3 PUSH1 0x2 MUL DUP3 OR SWAP1 POP SWAP3 SWAP2 POP POP JUMP JUMPDEST PUSH2 0x1B02 DUP3 PUSH2 0x16F1 JUMP JUMPDEST PUSH8 0xFFFFFFFFFFFFFFFF DUP2 GT ISZERO PUSH2 0x1B1B JUMPI PUSH2 0x1B1A PUSH2 0x191E JUMP JUMPDEST JUMPDEST PUSH2 0x1B25 DUP3 SLOAD PUSH2 0x1881 JUMP JUMPDEST PUSH2 0x1B30 DUP3 DUP3 DUP6 PUSH2 0x1A6C JUMP JUMPDEST PUSH1 0x0 PUSH1 0x20 SWAP1 POP PUSH1 0x1F DUP4 GT PUSH1 0x1 DUP2 EQ PUSH2 0x1B63 JUMPI PUSH1 0x0 DUP5 ISZERO PUSH2 0x1B51 JUMPI DUP3 DUP8 ADD MLOAD SWAP1 POP JUMPDEST PUSH2 0x1B5B DUP6 DUP3 PUSH2 0x1ADD JUMP JUMPDEST DUP7 SSTORE POP PUSH2 0x1BC3 JUMP JUMPDEST PUSH1 0x1F NOT DUP5 AND PUSH2 0x1B71 DUP7 PUSH2 0x194D JUMP JUMPDEST PUSH1 0x0 JUMPDEST DUP3 DUP2 LT ISZERO PUSH2 0x1B99 JUMPI DUP5 DUP10 ADD MLOAD DUP3 SSTORE PUSH1 0x1 DUP3 ADD SWAP2 POP PUSH1 0x20 DUP6 ADD SWAP5 POP PUSH1 0x20 DUP2 ADD SWAP1 POP PUSH2 0x1B74 JUMP JUMPDEST DUP7 DUP4 LT ISZERO PUSH2 0x1BB6 JUMPI DUP5 DUP10 ADD MLOAD PUSH2 0x1BB2 PUSH1 0x1F DUP10 AND DUP3 PUSH2 0x1ABF JUMP JUMPDEST DUP4 SSTORE POP JUMPDEST PUSH1 0x1 PUSH1 0x2 DUP9 MUL ADD DUP9 SSTORE POP POP POP JUMPDEST POP POP POP POP POP POP JUMP JUMPDEST DUP3 DUP2 DUP4 CALLDATACOPY PUSH1 0x0 DUP4 DUP4 ADD MSTORE POP POP POP JUMP JUMPDEST PUSH1 0x0 PUSH2 0x1BE6 DUP4 DUP6 PUSH2 0x16FC JUMP JUMPDEST SWAP4 POP PUSH2 0x1BF3 DUP4 DUP6 DUP5 PUSH2 0x1BCB JUMP JUMPDEST PUSH2 0x1BFC DUP4 PUSH2 0x14A0 JUMP JUMPDEST DUP5 ADD SWAP1 POP SWAP4 SWAP3 POP POP POP JUMP JUMPDEST PUSH1 0x0 PUSH1 0x40 DUP3 ADD SWAP1 POP DUP2 DUP2 SUB PUSH1 0x0 DUP4 ADD MSTORE PUSH2 0x1C22 DUP2 DUP6 DUP8 PUSH2 0x1BDA JUMP JUMPDEST SWAP1 POP PUSH2 0x1C31 PUSH1 0x20 DUP4 ADD DUP5 PUSH2 0x1392 JUMP JUMPDEST SWAP5 SWAP4 POP POP POP POP JUMP JUMPDEST PUSH32 0x6E6F74206F776E65720000000000000000000000000000000000000000000000 PUSH1 0x0 DUP3 ADD MSTORE POP JUMP JUMPDEST PUSH1 0x0 PUSH2 0x1C6F PUSH1 0x9 DUP4 PUSH2 0x16FC JUMP JUMPDEST SWAP2 POP PUSH2 0x1C7A DUP3 PUSH2 0x1C39 JUMP JUMPDEST PUSH1 0x20 DUP3 ADD SWAP1 POP SWAP2 SWAP1 POP JUMP JUMPDEST PUSH1 0x0 PUSH1 0x20 DUP3 ADD SWAP1 POP DUP2 DUP2 SUB PUSH1 0x0 DUP4 ADD MSTORE PUSH2 0x1C9E DUP2 PUSH2 0x1C62 JUMP JUMPDEST SWAP1 POP SWAP2 SWAP1 POP JUMP JUMPDEST PUSH1 0x0 DUP3 SWAP1 POP SWAP3 SWAP2 POP POP JUMP JUMPDEST PUSH1 0x0 DUP2 SWAP1 POP DUP2 PUSH1 0x0 MSTORE PUSH1 0x20 PUSH1 0x0 KECCAK256 SWAP1 POP SWAP2 SWAP1 POP JUMP JUMPDEST PUSH1 0x1F DUP3 GT ISZERO PUSH2 0x1D06 JUMPI PUSH2 0x1CD7 DUP2 PUSH2 0x1CB0 JUMP JUMPDEST PUSH2 0x1CE0 DUP5 PUSH2 0x1962 JUMP JUMPDEST DUP2 ADD PUSH1 0x20 DUP6 LT ISZERO PUSH2 0x1CEF JUMPI DUP2 SWAP1 POP JUMPDEST PUSH2 0x1D03 PUSH2 0x1CFB DUP6 PUSH2 0x1962 JUMP JUMPDEST DUP4 ADD DUP3 PUSH2 0x1A49 JUMP JUMPDEST POP POP JUMPDEST POP POP POP JUMP JUMPDEST PUSH2 0x1D15 DUP4 DUP4 PUSH2 0x1CA5 JUMP JUMPDEST PUSH8 0xFFFFFFFFFFFFFFFF DUP2 GT ISZERO PUSH2 0x1D2E JUMPI PUSH2 0x1D2D PUSH2 0x191E JUMP JUMPDEST JUMPDEST PUSH2 0x1D38 DUP3 SLOAD PUSH2 0x1881 JUMP JUMPDEST PUSH2 0x1D43 DUP3 DUP3 DUP6 PUSH2 0x1CC5 JUMP JUMPDEST PUSH1 0x0 PUSH1 0x1F DUP4 GT PUSH1 0x1 DUP2 EQ PUSH2 0x1D72 JUMPI PUSH1 0x0 DUP5 ISZERO PUSH2 0x1D60 JUMPI DUP3 DUP8 ADD CALLDATALOAD SWAP1 POP JUMPDEST PUSH2 0x1D6A DUP6 DUP3 PUSH2 0x1ADD JUMP JUMPDEST DUP7 SSTORE POP PUSH2 0x1DD2 JUMP JUMPDEST PUSH1 0x1F NOT DUP5 AND PUSH2 0x1D80 DUP7 PUSH2 0x1CB0 JUMP JUMPDEST PUSH1 0x0 JUMPDEST DUP3 DUP2 LT ISZERO PUSH2 0x1DA8 JUMPI DUP5 DUP10 ADD CALLDATALOAD DUP3 SSTORE PUSH1 0x1 DUP3 ADD SWAP2 POP PUSH1 0x20 DUP6 ADD SWAP5 POP PUSH1 0x20 DUP2 ADD SWAP1 POP PUSH2 0x1D83 JUMP JUMPDEST DUP7 DUP4 LT ISZERO PUSH2 0x1DC5 JUMPI DUP5 DUP10 ADD CALLDATALOAD PUSH2 0x1DC1 PUSH1 0x1F DUP10 AND DUP3 PUSH2 0x1ABF JUMP JUMPDEST DUP4 SSTORE POP JUMPDEST PUSH1 0x1 PUSH1 0x2 DUP9 MUL ADD DUP9 SSTORE POP POP POP JUMPDEST POP POP POP POP POP POP POP JUMP JUMPDEST PUSH1 0x0 DUP2 SWAP1 POP SWAP3 SWAP2 POP POP JUMP JUMPDEST PUSH32 0x416363657373436F6E74726F6C3A206163636F756E7420000000000000000000 PUSH1 0x0 DUP3 ADD MSTORE POP JUMP JUMPDEST PUSH1 0x0 PUSH2 0x1E1C PUSH1 0x17 DUP4 PUSH2 0x1DDB JUMP JUMPDEST SWAP2 POP PUSH2 0x1E27 DUP3 PUSH2 0x1DE6 JUMP JUMPDEST PUSH1 0x17 DUP3 ADD SWAP1 POP SWAP2 SWAP1 POP JUMP JUMPDEST PUSH1 0x0 PUSH2 0x1E3D DUP3 PUSH2 0x16F1 JUMP JUMPDEST PUSH2 0x1E47 DUP2 DUP6 PUSH2 0x1DDB JUMP JUMPDEST SWAP4 POP PUSH2 0x1E57 DUP2 DUP6 PUSH1 0x20 DUP7 ADD PUSH2 0x1476 JUMP JUMPDEST DUP1 DUP5 ADD SWAP2 POP POP SWAP3 SWAP2 POP POP JUMP JUMPDEST PUSH32 0x206973206D697373696E6720726F6C6520000000000000000000000000000000 PUSH1 0x0 DUP3 ADD MSTORE POP JUMP JUMPDEST PUSH1 0x0 PUSH2 0x1E99 PUSH1 0x11 DUP4 PUSH2 0x1DDB JUMP JUMPDEST SWAP2 POP PUSH2 0x1EA4 DUP3 PUSH2 0x1E63 JUMP JUMPDEST PUSH1 0x11 DUP3 ADD SWAP1 POP SWAP2 SWAP1 POP JUMP JUMPDEST PUSH1 0x0 PUSH2 0x1EBA DUP3 PUSH2 0x1E0F JUMP JUMPDEST SWAP2 POP PUSH2 0x1EC6 DUP3 DUP6 PUSH2 0x1E32 JUMP JUMPDEST SWAP2 POP PUSH2 0x1ED1 DUP3 PUSH2 0x1E8C JUMP JUMPDEST SWAP2 POP PUSH2 0x1EDD DUP3 DUP5 PUSH2 0x1E32 JUMP JUMPDEST SWAP2 POP DUP2 SWAP1 POP SWAP4 SWAP3 POP POP POP JUMP JUMPDEST PUSH1 0x0 PUSH1 0x20 DUP3 ADD SWAP1 POP DUP2 DUP2 SUB PUSH1 0x0 DUP4 ADD MSTORE PUSH2 0x1F03 DUP2 DUP5 PUSH2 0x170D JUMP JUMPDEST SWAP1 POP SWAP3 SWAP2 POP POP JUMP JUMPDEST PUSH32 0x4E487B7100000000000000000000000000000000000000000000000000000000 PUSH1 0x0 MSTORE PUSH1 0x11 PUSH1 0x4 MSTORE PUSH1 0x24 PUSH1 0x0 REVERT JUMPDEST PUSH1 0x0 PUSH2 0x1F45 DUP3 PUSH2 0x1746 JUMP JUMPDEST SWAP2 POP PUSH2 0x1F50 DUP4 PUSH2 0x1746 JUMP JUMPDEST SWAP3 POP DUP3 DUP3 MUL PUSH2 0x1F5E DUP2 PUSH2 0x1746 JUMP JUMPDEST SWAP2 POP DUP3 DUP3 DIV DUP5 EQ DUP4 ISZERO OR PUSH2 0x1F75 JUMPI PUSH2 0x1F74 PUSH2 0x1F0B JUMP JUMPDEST JUMPDEST POP SWAP3 SWAP2 POP POP JUMP JUMPDEST PUSH1 0x0 PUSH2 0x1F87 DUP3 PUSH2 0x1746 JUMP JUMPDEST SWAP2 POP PUSH2 0x1F92 DUP4 PUSH2 0x1746 JUMP JUMPDEST SWAP3 POP DUP3 DUP3 ADD SWAP1 POP DUP1 DUP3 GT ISZERO PUSH2 0x1FAA JUMPI PUSH2 0x1FA9 PUSH2 0x1F0B JUMP JUMPDEST JUMPDEST SWAP3 SWAP2 POP POP JUMP JUMPDEST PUSH32 0x4E487B7100000000000000000000000000000000000000000000000000000000 PUSH1 0x0 MSTORE PUSH1 0x32 PUSH1 0x4 MSTORE PUSH1 0x24 PUSH1 0x0 REVERT JUMPDEST PUSH1 0x0 PUSH2 0x1FEA DUP3 PUSH2 0x1746 JUMP JUMPDEST SWAP2 POP PUSH1 0x0 DUP3 SUB PUSH2 0x1FFD JUMPI PUSH2 0x1FFC PUSH2 0x1F0B JUMP JUMPDEST JUMPDEST PUSH1 0x1 DUP3 SUB SWAP1 POP SWAP2 SWAP1 POP JUMP JUMPDEST PUSH32 0x537472696E67733A20686578206C656E67746820696E73756666696369656E74 PUSH1 0x0 DUP3 ADD MSTORE POP JUMP JUMPDEST PUSH1 0x0 PUSH2 0x203E PUSH1 0x20 DUP4 PUSH2 0x16FC JUMP JUMPDEST SWAP2 POP PUSH2 0x2049 DUP3 PUSH2 0x2008 JUMP JUMPDEST PUSH1 0x20 DUP3 ADD SWAP1 POP SWAP2 SWAP1 POP JUMP JUMPDEST PUSH1 0x0 PUSH1 0x20 DUP3 ADD SWAP1 POP DUP2 DUP2 SUB PUSH1 0x0 DUP4 ADD MSTORE PUSH2 0x206D DUP2 PUSH2 0x2031 JUMP JUMPDEST SWAP1 POP SWAP2 SWAP1 POP JUMP INVALID LOG2 PUSH5 0x6970667358 0x22 SLT KECCAK256 PUSH23 0x9C3147BCBEA75ECDC703E7FB809CCF8BAE981DE0171F55 STOP TIMESTAMP SAR BALANCE 0x21 CALLDATALOAD EQ 0xEE PUSH5 0x736F6C6343 STOP ADDMOD EQ STOP CALLER "},"methodIdentifiers":{"DEFAULT_ADMIN_ROLE()":"a217fddf","EMERGENCY_ISSUER_ROLE()":"fe611a7c","encryptedKeys(bytes32,address)":"7204608a","getEncryptedKey(bytes32,address)":"7bbc67d7","getRoleAdmin(bytes32)":"248a9ca3","grantAccess(bytes32,address,bytes)":"8a81ced2","grantRole(bytes32,address)":"2f2ff15d","hasRole(bytes32,address)":"91d14854","registerResource(bytes32,string,bytes32,string)":"78037e89","renounceRole(bytes32,address)":"36568abe","resources(bytes32)":"912929df","revokeAccess(bytes32,address)":"8d53b208","revokeRole(bytes32,address)":"d547741f","supportsInterface(bytes4)":"01ffc9a7"}}}}}