{
  "_format": "hh-sol-artifact-1",
  "contractName": "MedisecureRegistry",
  "sourceName": "contracts/MedisecureRegistry.sol",
  "abi": [
    {
      "inputs": [
        {
          "internalType": "address",
          "name": "initialAdmin",
          "type": "address"
        }
      ],
      "stateMutability": "nonpayable",
      "type": "constructor"
    },
    {
      "anonymous": false,
      "inputs": [
        {
          "indexed": true,
          "internalType": "bytes32",
          "name": "resourceId",
          "type": "bytes32"
        },
        {
          "indexed": true,
          "internalType": "address",
          "name": "grantee",
          "type": "address"
        }
      ],
      "name": "AccessGranted",
      "type": "event"
    },
    {
      "anonymous": false,
      "inputs": [
        {
          "indexed": true,
          "internalType": "bytes32",
          "name": "resourceId",
          "type": "bytes32"
        },
        {
          "indexed": true,
          "internalType": "address",
          "name": "grantee",
          "type": "address"
        }
      ],
      "name": "AccessRevoked",
      "type": "event"
    },
    {
      "anonymous": false,
      "inputs": [
        {
          "indexed": true,
          "internalType": "bytes32",
          "name": "resourceId",
          "type": "bytes32"
        },
        {
          "indexed": true,
          "internalType": "address",
          "name": "owner",
          "type": "address"
        },
        {
          "indexed": false,
          "internalType": "string",
          "name": "cid",
          "type": "string"
        },
        {
          "indexed": false,
          "internalType": "bytes32",
          "name": "cipherHash",
          "type": "bytes32"
        }
      ],
      "name": "ResourceRegistered",
      "type": "event"
    },
    {
      "anonymous": false,
      "inputs": [
        {
          "indexed": true,
          "internalType": "bytes32",
          "name": "role",
          "type": "bytes32"
        },
        {
          "indexed": true,
          "internalType": "bytes32",
          "name": "previousAdminRole",
          "type": "bytes32"
        },
        {
          "indexed": true,
          "internalType": "bytes32",
          "name": "newAdminRole",
          "type": "bytes32"
        }
      ],
      "name": "RoleAdminChanged",
      "type": "event"
    },
    {
      "anonymous": false,
      "inputs": [
        {
          "indexed": true,
          "internalType": "bytes32",
          "name": "role",
          "type": "bytes32"
        },
        {
          "indexed": true,
          "internalType": "address",
          "name": "account",
          "type": "address"
        },
        {
          "indexed": true,
          "internalType": "address",
          "name": "sender",
          "type": "address"
        }
      ],
      "name": "RoleGranted",
      "type": "event"
    },
    {
      "anonymous": false,
      "inputs": [
        {
          "indexed": true,
          "internalType": "bytes32",
          "name": "role",
          "type": "bytes32"
        },
        {
          "indexed": true,
          "internalType": "address",
          "name": "account",
          "type": "address"
        },
        {
          "indexed": true,
          "internalType": "address",
          "name": "sender",
          "type": "address"
        }
      ],
      "name": "RoleRevoked",
      "type": "event"
    },
    {
      "inputs": [],
      "name": "DEFAULT_ADMIN_ROLE",
      "outputs": [
        {
          "internalType": "bytes32",
          "name": "",
          "type": "bytes32"
        }
      ],
      "stateMutability": "view",
      "type": "function"
    },
    {
      "inputs": [],
      "name": "EMERGENCY_ISSUER_ROLE",
      "outputs": [
        {
          "internalType": "bytes32",
          "name": "",
          "type": "bytes32"
        }
      ],
      "stateMutability": "view",
      "type": "function"
    },
    {
      "inputs": [
        {
          "internalType": "bytes32",
          "name": "",
          "type": "bytes32"
        },
        {
          "internalType": "address",
          "name": "",
          "type": "address"
        }
      ],
      "name": "encryptedKeys",
      "outputs": [
        {
          "internalType": "bytes",
          "name": "",
          "type": "bytes"
        }
      ],
      "stateMutability": "view",
      "type": "function"
    },
    {
      "inputs": [
        {
          "internalType": "bytes32",
          "name": "resourceId",
          "type": "bytes32"
        },
        {
          "internalType": "address",
          "name": "grantee",
          "type": "address"
        }
      ],
      "name": "getEncryptedKey",
      "outputs": [
        {
          "internalType": "bytes",
          "name": "",
          "type": "bytes"
        }
      ],
      "stateMutability": "view",
      "type": "function"
    },
    {
      "inputs": [
        {
          "internalType": "bytes32",
          "name": "role",
          "type": "bytes32"
        }
      ],
      "name": "getRoleAdmin",
      "outputs": [
        {
          "internalType": "bytes32",
          "name": "",
          "type": "bytes32"
        }
      ],
      "stateMutability": "view",
      "type": "function"
    },
    {
      "inputs": [
        {
          "internalType": "bytes32",
          "name": "resourceId",
          "type": "bytes32"
        },
        {
          "internalType": "address",
          "name": "grantee",
          "type": "address"
        },
        {
          "internalType": "bytes",
          "name": "encryptedSymKey",
          "type": "bytes"
        }
      ],
      "name": "grantAccess",
      "outputs": [],
      "stateMutability": "nonpayable",
      "type": "function"
    },
    {
      "inputs": [
        {
          "internalType": "bytes32",
          "name": "role",
          "type": "bytes32"
        },
        {
          "internalType": "address",
          "name": "account",
          "type": "address"
        }
      ],
      "name": "grantRole",
      "outputs": [],
      "stateMutability": "nonpayable",
      "type": "function"
    },
    {
      "inputs": [
        {
          "internalType": "bytes32",
          "name": "role",
          "type": "bytes32"
        },
        {
          "internalType": "address",
          "name": "account",
          "type": "address"
        }
      ],
      "name": "hasRole",
      "outputs": [
        {
          "internalType": "bool",
          "name": "",
          "type": "bool"
        }
      ],
      "stateMutability": "view",
      "type": "function"
    },
    {
      "inputs": [
        {
          "internalType": "bytes32",
          "name": "resourceId",
          "type": "bytes32"
        },
        {
          "internalType": "string",
          "name": "cid",
          "type": "string"
        },
        {
          "internalType": "bytes32",
          "name": "cipherHash",
          "type": "bytes32"
        },
        {
          "internalType": "string",
          "name": "metadata",
          "type": "string"
        }
      ],
      "name": "registerResource",
      "outputs": [],
      "stateMutability": "nonpayable",
      "type": "function"
    },
    {
      "inputs": [
        {
          "internalType": "bytes32",
          "name": "role",
          "type": "bytes32"
        },
        {
          "internalType": "address",
          "name": "account",
          "type": "address"
        }
      ],
      "name": "renounceRole",
      "outputs": [],
      "stateMutability": "nonpayable",
      "type": "function"
    },
    {
      "inputs": [
        {
          "internalType": "bytes32",
          "name": "",
          "type": "bytes32"
        }
      ],
      "name": "resources",
      "outputs": [
        {
          "internalType": "address",
          "name": "owner",
          "type": "address"
        },
        {
          "internalType": "string",
          "name": "cid",
          "type": "string"
        },
        {
          "internalType": "bytes32",
          "name": "cipherHash",
          "type": "bytes32"
        },
        {
          "internalType": "string",
          "name": "metadata",
          "type": "string"
        },
        {
          "internalType": "uint256",
          "name": "createdAt",
          "type": "uint256"
        }
      ],
      "stateMutability": "view",
      "type": "function"
    },
    {
      "inputs": [
        {
          "internalType": "bytes32",
          "name": "resourceId",
          "type": "bytes32"
        },
        {
          "internalType": "address",
          "name": "grantee",
          "type": "address"
        }
      ],
      "name": "revokeAccess",
      "outputs": [],
      "stateMutability": "nonpayable",
      "type": "function"
    },
    {
      "inputs": [
        {
          "internalType": "bytes32",
          "name": "role",
          "type": "bytes32"
        },
        {
          "internalType": "address",
          "name": "account",
          "type": "address"
        }
      ],
      "name": "revokeRole",
      "outputs": [],
      "stateMutability": "nonpayable",
      "type": "function"
    },
    {
      "inputs": [
        {
          "internalType": "bytes4",
          "name": "interfaceId",
          "type": "bytes4"
        }
      ],
      "name": "supportsInterface",
      "outputs": [
        {
          "internalType": "bool",
          "name": "",
          "type": "bool"
        }
      ],
      "stateMutability": "view",
      "type": "function"
    }
  ],
  "bytecode": "0x60806040523480156200001157600080fd5b506040516200240038038062002400833981810160405281019062000037919062000314565b620000896000801b600073ffffffffffffffffffffffffffffffffffffffff168373ffffffffffffffffffffffffffffffffffffffff16146200007b57826200007d565b335b620000c560201b60201c565b620000be7f5b8b380b1c48963186c539f7406268ddbde5178d20526fbfbe57a758a7b86afd6000801b620001b660201b60201c565b5062000346565b620000d782826200021960201b60201c565b620001b257600160008084815260200190815260200160002060000160008373ffffffffffffffffffffffffffffffffffffffff1673ffffffffffffffffffffffffffffffffffffffff16815260200190815260200160002060006101000a81548160ff021916908315150217905550620001576200028360201b60201c565b73ffffffffffffffffffffffffffffffffffffffff168173ffffffffffffffffffffffffffffffffffffffff16837f2f8788117e7eff1d82e926ec794901d17c78024a50270940304540a733656f0d60405160405180910390a45b5050565b6000620001c9836200028b60201b60201c565b905081600080858152602001908152602001600020600101819055508181847fbd79b86ffe0ab8e8776151514217cd7cacd52c909f66475c3af44e129f0b00ff60405160405180910390a4505050565b600080600084815260200190815260200160002060000160008373ffffffffffffffffffffffffffffffffffffffff1673ffffffffffffffffffffffffffffffffffffffff16815260200190815260200160002060009054906101000a900460ff16905092915050565b600033905090565b6000806000838152602001908152602001600020600101549050919050565b600080fd5b600073ffffffffffffffffffffffffffffffffffffffff82169050919050565b6000620002dc82620002af565b9050919050565b620002ee81620002cf565b8114620002fa57600080fd5b50565b6000815190506200030e81620002e3565b92915050565b6000602082840312156200032d576200032c620002aa565b5b60006200033d84828501620002fd565b91505092915050565b6120aa80620003566000396000f3fe608060405234801561001057600080fd5b50600436106100ea5760003560e01c80638a81ced21161008c57806391d148541161006657806391d148541461026f578063a217fddf1461029f578063d547741f146102bd578063fe611a7c146102d9576100ea565b80638a81ced2146102035780638d53b2081461021f578063912929df1461023b576100ea565b806336568abe116100c857806336568abe1461016b5780637204608a1461018757806378037e89146101b75780637bbc67d7146101d3576100ea565b806301ffc9a7146100ef578063248a9ca31461011f5780632f2ff15d1461014f575b600080fd5b610109600480360381019061010491906112cc565b6102f7565b6040516101169190611314565b60405180910390f35b61013960048036038101906101349190611365565b610371565b60405161014691906113a1565b60405180910390f35b6101696004803603810190610164919061141a565b610390565b005b6101856004803603810190610180919061141a565b6103b1565b005b6101a1600480360381019061019c919061141a565b610434565b6040516101ae91906114ea565b60405180910390f35b6101d160048036038101906101cc9190611571565b6104e1565b005b6101ed60048036038101906101e8919061141a565b610743565b6040516101fa91906114ea565b60405180910390f35b61021d6004803603810190610218919061166e565b610826565b005b6102396004803603810190610234919061141a565b610974565b005b61025560048036038101906102509190611365565b610abc565b60405161026695949392919061175f565b60405180910390f35b6102896004803603810190610284919061141a565b610c22565b6040516102969190611314565b60405180910390f35b6102a7610c8c565b6040516102b491906113a1565b60405180910390f35b6102d760048036038101906102d2919061141a565b610c93565b005b6102e1610cb4565b6040516102ee91906113a1565b60405180910390f35b60007f7965db0b000000000000000000000000000000000000000000000000000000007bffffffffffffffffffffffffffffffffffffffffffffffffffffffff1916827bffffffffffffffffffffffffffffffffffffffffffffffffffffffff1916148061036a575061036982610cd8565b5b9050919050565b6000806000838152602001908152602001600020600101549050919050565b61039982610371565b6103a281610d42565b6103ac8383610d56565b505050565b6103b9610e36565b73ffffffffffffffffffffffffffffffffffffffff168173ffffffffffffffffffffffffffffffffffffffff1614610426576040517f08c379a000000000000000000000000000000000000000000000000000000000815260040161041d90611832565b60405180910390fd5b6104308282610e3e565b5050565b600260205281600052604060002060205280600052604060002060009150915050805461046090611881565b80601f016020809104026020016040519081016040528092919081815260200182805461048c90611881565b80156104d95780601f106104ae576101008083540402835291602001916104d9565b820191906000526020600020905b8154815290600101906020018083116104bc57829003601f168201915b505050505081565b600073ffffffffffffffffffffffffffffffffffffffff166001600088815260200190815260200160002060000160009054906101000a900473ffffffffffffffffffffffffffffffffffffffff1673ffffffffffffffffffffffffffffffffffffffff1614610586576040517f08c379a000000000000000000000000000000000000000000000000000000000815260040161057d906118fe565b60405180910390fd5b6040518060a001604052803373ffffffffffffffffffffffffffffffffffffffff16815260200186868080601f016020809104026020016040519081016040528093929190818152602001838380828437600081840152601f19601f82011690508083019250505050505050815260200184815260200183838080601f016020809104026020016040519081016040528093929190818152602001838380828437600081840152601f19601f820116905080830192505050505050508152602001428152506001600088815260200190815260200160002060008201518160000160006101000a81548173ffffffffffffffffffffffffffffffffffffffff021916908373ffffffffffffffffffffffffffffffffffffffff16021790555060208201518160010190816106ba9190611af9565b506040820151816002015560608201518160030190816106da9190611af9565b50608082015181600401559050503373ffffffffffffffffffffffffffffffffffffffff16867fb13f804c30563e6530af8c8714f39ce7e0a3e04d1857f00e1335d7d7dcd888d787878760405161073393929190611c07565b60405180910390a3505050505050565b60606002600084815260200190815260200160002060008373ffffffffffffffffffffffffffffffffffffffff1673ffffffffffffffffffffffffffffffffffffffff16815260200190815260200160002080546107a090611881565b80601f01602080910402602001604051908101604052809291908181526020018280546107cc90611881565b80156108195780601f106107ee57610100808354040283529160200191610819565b820191906000526020600020905b8154815290600101906020018083116107fc57829003601f168201915b5050505050905092915050565b3373ffffffffffffffffffffffffffffffffffffffff166001600086815260200190815260200160002060000160009054906101000a900473ffffffffffffffffffffffffffffffffffffffff1673ffffffffffffffffffffffffffffffffffffffff16146108ca576040517f08c379a00000000000000000000000000000000000000000000000000000000081526004016108c190611c85565b60405180910390fd5b81816002600087815260200190815260200160002060008673ffffffffffffffffffffffffffffffffffffffff1673ffffffffffffffffffffffffffffffffffffffff1681526020019081526020016000209182610929929190611d0b565b508273ffffffffffffffffffffffffffffffffffffffff16847ff20afd7b032307b01752ee91e3f6a4b83a5b4ab631f9ab279322fd45634382c060405160405180910390a350505050565b3373ffffffffffffffffffffffffffffffffffffffff166001600084815260200190815260200160002060000160009054906101000a900473ffffffffffffffffffffffffffffffffffffffff1673ffffffffffffffffffffffffffffffffffffffff1614610a18576040517f08c379a0000000000000000000000000000000000000000000000000000000008152600401610a0f90611c85565b60405180910390fd5b6002600083815260200190815260200160002060008273ffffffffffffffffffffffffffffffffffffffff1673ffffffffffffffffffffffffffffffffffffffff1681526020019081526020016000206000610a74919061120d565b8073ffffffffffffffffffffffffffffffffffffffff16827fe7906b77ea165c70ad8268ce5b59b778a198edf9c1ae4118378eefdc76fce5f460405160405180910390a35050565b60016020528060005260406000206000915090508060000160009054906101000a900473ffffffffffffffffffffffffffffffffffffffff1690806001018054610b0590611881565b80601f0160208091040260200160405190810160405280929190818152602001828054610b3190611881565b8015610b7e5780601f10610b5357610100808354040283529160200191610b7e565b820191906000526020600020905b815481529060010190602001808311610b6157829003601f168201915b505050505090806002015490806003018054610b9990611881565b80601f0160208091040260200160405190810160405280929190818152602001828054610bc590611881565b8015610c125780601f10610be757610100808354040283529160200191610c12565b820191906000526020600020905b815481529060010190602001808311610bf557829003601f168201915b5050505050908060040154905085565b600080600084815260200190815260200160002060000160008373ffffffffffffffffffffffffffffffffffffffff1673ffffffffffffffffffffffffffffffffffffffff16815260200190815260200160002060009054906101000a900460ff16905092915050565b6000801b81565b610c9c82610371565b610ca581610d42565b610caf8383610e3e565b505050565b7f5b8b380b1c48963186c539f7406268ddbde5178d20526fbfbe57a758a7b86afd81565b60007f01ffc9a7000000000000000000000000000000000000000000000000000000007bffffffffffffffffffffffffffffffffffffffffffffffffffffffff1916827bffffffffffffffffffffffffffffffffffffffffffffffffffffffff1916149050919050565b610d5381610d4e610e36565b610f1f565b50565b610d608282610c22565b610e3257600160008084815260200190815260200160002060000160008373ffffffffffffffffffffffffffffffffffffffff1673ffffffffffffffffffffffffffffffffffffffff16815260200190815260200160002060006101000a81548160ff021916908315150217905550610dd7610e36565b73ffffffffffffffffffffffffffffffffffffffff168173ffffffffffffffffffffffffffffffffffffffff16837f2f8788117e7eff1d82e926ec794901d17c78024a50270940304540a733656f0d60405160405180910390a45b5050565b600033905090565b610e488282610c22565b15610f1b57600080600084815260200190815260200160002060000160008373ffffffffffffffffffffffffffffffffffffffff1673ffffffffffffffffffffffffffffffffffffffff16815260200190815260200160002060006101000a81548160ff021916908315150217905550610ec0610e36565b73ffffffffffffffffffffffffffffffffffffffff168173ffffffffffffffffffffffffffffffffffffffff16837ff6391f5c32d9c69d2a47ea670b442974b53935d1edc7fd64eb21e047a839171b60405160405180910390a45b5050565b610f298282610c22565b610fa057610f3681610fa4565b610f448360001c6020610fd1565b604051602001610f55929190611eaf565b6040516020818303038152906040526040517f08c379a0000000000000000000000000000000000000000000000000000000008152600401610f979190611ee9565b60405180910390fd5b5050565b6060610fca8273ffffffffffffffffffffffffffffffffffffffff16601460ff16610fd1565b9050919050565b606060006002836002610fe49190611f3a565b610fee9190611f7c565b67ffffffffffffffff8111156110075761100661191e565b5b6040519080825280601f01601f1916602001820160405280156110395781602001600182028036833780820191505090505b5090507f30000000000000000000000000000000000000000000000000000000000000008160008151811061107157611070611fb0565b5b60200101907effffffffffffffffffffffffffffffffffffffffffffffffffffffffffffff1916908160001a9053507f7800000000000000000000000000000000000000000000000000000000000000816001815181106110d5576110d4611fb0565b5b60200101907effffffffffffffffffffffffffffffffffffffffffffffffffffffffffffff1916908160001a905350600060018460026111159190611f3a565b61111f9190611f7c565b90505b60018111156111bf577f3031323334353637383961626364656600000000000000000000000000000000600f86166010811061116157611160611fb0565b5b1a60f81b82828151811061117857611177611fb0565b5b60200101907effffffffffffffffffffffffffffffffffffffffffffffffffffffffffffff1916908160001a905350600485901c9450806111b890611fdf565b9050611122565b5060008414611203576040517f08c379a00000000000000000000000000000000000000000000000000000000081526004016111fa90612054565b60405180910390fd5b8091505092915050565b50805461121990611881565b6000825580601f1061122b575061124a565b601f016020900490600052602060002090810190611249919061124d565b5b50565b5b8082111561126657600081600090555060010161124e565b5090565b600080fd5b600080fd5b60007fffffffff0000000000000000000000000000000000000000000000000000000082169050919050565b6112a981611274565b81146112b457600080fd5b50565b6000813590506112c6816112a0565b92915050565b6000602082840312156112e2576112e161126a565b5b60006112f0848285016112b7565b91505092915050565b60008115159050919050565b61130e816112f9565b82525050565b60006020820190506113296000830184611305565b92915050565b6000819050919050565b6113428161132f565b811461134d57600080fd5b50565b60008135905061135f81611339565b92915050565b60006020828403121561137b5761137a61126a565b5b600061138984828501611350565b91505092915050565b61139b8161132f565b82525050565b60006020820190506113b66000830184611392565b92915050565b600073ffffffffffffffffffffffffffffffffffffffff82169050919050565b60006113e7826113bc565b9050919050565b6113f7816113dc565b811461140257600080fd5b50565b600081359050611414816113ee565b92915050565b600080604083850312156114315761143061126a565b5b600061143f85828601611350565b925050602061145085828601611405565b9150509250929050565b600081519050919050565b600082825260208201905092915050565b60005b83811015611494578082015181840152602081019050611479565b60008484015250505050565b6000601f19601f8301169050919050565b60006114bc8261145a565b6114c68185611465565b93506114d6818560208601611476565b6114df816114a0565b840191505092915050565b6000602082019050818103600083015261150481846114b1565b905092915050565b600080fd5b600080fd5b600080fd5b60008083601f8401126115315761153061150c565b5b8235905067ffffffffffffffff81111561154e5761154d611511565b5b60208301915083600182028301111561156a57611569611516565b5b9250929050565b6000806000806000806080878903121561158e5761158d61126a565b5b600061159c89828a01611350565b965050602087013567ffffffffffffffff8111156115bd576115bc61126f565b5b6115c989828a0161151b565b955095505060406115dc89828a01611350565b935050606087013567ffffffffffffffff8111156115fd576115fc61126f565b5b61160989828a0161151b565b92509250509295509295509295565b60008083601f84011261162e5761162d61150c565b5b8235905067ffffffffffffffff81111561164b5761164a611511565b5b60208301915083600182028301111561166757611666611516565b5b9250929050565b600080600080606085870312156116885761168761126a565b5b600061169687828801611350565b94505060206116a787828801611405565b935050604085013567ffffffffffffffff8111156116c8576116c761126f565b5b6116d487828801611618565b925092505092959194509250565b6116eb816113dc565b82525050565b600081519050919050565b600082825260208201905092915050565b6000611718826116f1565b61172281856116fc565b9350611732818560208601611476565b61173b816114a0565b840191505092915050565b6000819050919050565b61175981611746565b82525050565b600060a08201905061177460008301886116e2565b8181036020830152611786818761170d565b90506117956040830186611392565b81810360608301526117a7818561170d565b90506117b66080830184611750565b9695505050505050565b7f416363657373436f6e74726f6c3a2063616e206f6e6c792072656e6f756e636560008201527f20726f6c657320666f722073656c660000000000000000000000000000000000602082015250565b600061181c602f836116fc565b9150611827826117c0565b604082019050919050565b6000602082019050818103600083015261184b8161180f565b9050919050565b7f4e487b7100000000000000000000000000000000000000000000000000000000600052602260045260246000fd5b6000600282049050600182168061189957607f821691505b6020821081036118ac576118ab611852565b5b50919050565b7f6578697374730000000000000000000000000000000000000000000000000000600082015250565b60006118e86006836116fc565b91506118f3826118b2565b602082019050919050565b60006020820190508181036000830152611917816118db565b9050919050565b7f4e487b7100000000000000000000000000000000000000000000000000000000600052604160045260246000fd5b60008190508160005260206000209050919050565b60006020601f8301049050919050565b600082821b905092915050565b6000600883026119af7fffffffffffffffffffffffffffffffffffffffffffffffffffffffffffffffff82611972565b6119b98683611972565b95508019841693508086168417925050509392505050565b6000819050919050565b60006119f66119f16119ec84611746565b6119d1565b611746565b9050919050565b6000819050919050565b611a10836119db565b611a24611a1c826119fd565b84845461197f565b825550505050565b600090565b611a39611a2c565b611a44818484611a07565b505050565b5b81811015611a6857611a5d600082611a31565b600181019050611a4a565b5050565b601f821115611aad57611a7e8161194d565b611a8784611962565b81016020851015611a96578190505b611aaa611aa285611962565b830182611a49565b50505b505050565b600082821c905092915050565b6000611ad060001984600802611ab2565b1980831691505092915050565b6000611ae98383611abf565b9150826002028217905092915050565b611b02826116f1565b67ffffffffffffffff811115611b1b57611b1a61191e565b5b611b258254611881565b611b30828285611a6c565b600060209050601f831160018114611b635760008415611b51578287015190505b611b5b8582611add565b865550611bc3565b601f198416611b718661194d565b60005b82811015611b9957848901518255600182019150602085019450602081019050611b74565b86831015611bb65784890151611bb2601f891682611abf565b8355505b6001600288020188555050505b505050505050565b82818337600083830152505050565b6000611be683856116fc565b9350611bf3838584611bcb565b611bfc836114a0565b840190509392505050565b60006040820190508181036000830152611c22818587611bda565b9050611c316020830184611392565b949350505050565b7f6e6f74206f776e65720000000000000000000000000000000000000000000000600082015250565b6000611c6f6009836116fc565b9150611c7a82611c39565b602082019050919050565b60006020820190508181036000830152611c9e81611c62565b9050919050565b600082905092915050565b60008190508160005260206000209050919050565b601f821115611d0657611cd781611cb0565b611ce084611962565b81016020851015611cef578190505b611d03611cfb85611962565b830182611a49565b50505b505050565b611d158383611ca5565b67ffffffffffffffff811115611d2e57611d2d61191e565b5b611d388254611881565b611d43828285611cc5565b6000601f831160018114611d725760008415611d60578287013590505b611d6a8582611add565b865550611dd2565b601f198416611d8086611cb0565b60005b82811015611da857848901358255600182019150602085019450602081019050611d83565b86831015611dc55784890135611dc1601f891682611abf565b8355505b6001600288020188555050505b50505050505050565b600081905092915050565b7f416363657373436f6e74726f6c3a206163636f756e7420000000000000000000600082015250565b6000611e1c601783611ddb565b9150611e2782611de6565b601782019050919050565b6000611e3d826116f1565b611e478185611ddb565b9350611e57818560208601611476565b80840191505092915050565b7f206973206d697373696e6720726f6c6520000000000000000000000000000000600082015250565b6000611e99601183611ddb565b9150611ea482611e63565b601182019050919050565b6000611eba82611e0f565b9150611ec68285611e32565b9150611ed182611e8c565b9150611edd8284611e32565b91508190509392505050565b60006020820190508181036000830152611f03818461170d565b905092915050565b7f4e487b7100000000000000000000000000000000000000000000000000000000600052601160045260246000fd5b6000611f4582611746565b9150611f5083611746565b9250828202611f5e81611746565b91508282048414831517611f7557611f74611f0b565b5b5092915050565b6000611f8782611746565b9150611f9283611746565b9250828201905080821115611faa57611fa9611f0b565b5b92915050565b7f4e487b7100000000000000000000000000000000000000000000000000000000600052603260045260246000fd5b6000611fea82611746565b915060008203611ffd57611ffc611f0b565b5b600182039050919050565b7f537472696e67733a20686578206c656e67746820696e73756666696369656e74600082015250565b600061203e6020836116fc565b915061204982612008565b602082019050919050565b6000602082019050818103600083015261206d81612031565b905091905056fea2646970667358221220769c3147bcbea75ecdc703e7fb809ccf8bae981de0171f5500421d31213514ee64736f6c63430008140033",
  "linkReferences": {},
  "deployedLinkReferences": {}
}