{
  "_format": "hh-sol-artifact-1",
  "contractName": "MedisecureRegistry",
  "sourceName": "contracts/MedisecureRegistry.sol",
  "abi": [
    {
      "inputs": [
        {
          "internalType": "address",
          "name": "initialAdmin",
          "type": "address"
        }
      ],
      "stateMutability": "nonpayable",
      "type": "constructor"
    },
    {
      "anonymous": false,
      "inputs": [
        {
          "indexed": true,
          "internalType": "bytes32",
          "name": "resourceId",
          "type": "bytes32"
        },
        {
          "indexed": true,
          "internalType": "address",
          "name": "grantee",
          "type": "address"
        },
        {
          "indexed": false,
          "internalType": "bytes",
          "name": "encryptedSymKey",
          "type": "bytes"
        }
      ],
      "name": "AccessGranted",
      "type": "event"
    },
    {
      "anonymous": false,
      "inputs": [
        {
          "indexed": true,
          "internalType": "bytes32",
          "name": "resourceId",
          "type": "bytes32"
        },
        {
          "indexed": true,
          "internalType": "address",
          "name": "grantee",
          "type": "address"
        }
      ],
      "name": "AccessRevoked",
      "type": "event"
    },
    {
      "anonymous": false,
      "inputs": [
        {
          "indexed": true,
          "internalType": "bytes32",
          "name": "resourceId",
          "type": "bytes32"
        },
        {
          "indexed": true,
          "internalType": "address",
          "name": "requester",
          "type": "address"
        },
        {
          "indexed": false,
          "internalType": "string",
          "name": "reason",
          "type": "string"
        }
      ],
      "name": "EmergencyAccessIssued",
      "type": "event"
    },
    {
      "anonymous": false,
      "inputs": [
        {
          "indexed": true,
          "internalType": "bytes32",
          "name": "resourceId",
          "type": "bytes32"
        },
        {
          "indexed": true,
          "internalType": "address",
          "name": "owner",
          "type": "address"
        },
        {
          "indexed": false,
          "internalType": "string",
          "name": "cid",
          "type": "string"
        },
        {
          "indexed": false,
          "internalType": "bytes32",
          "name": "cipherHash",
          "type": "bytes32"
        },
        {
          "indexed": false,
          "internalType": "string",
          "name": "metadata",
          "type": "string"
        }
      ],
      "name": "ResourceRegistered",
      "type": "event"
    },
    {
      "anonymous": false,
      "inputs": [
        {
          "indexed": true,
          "internalType": "bytes32",
          "name": "resourceId",
          "type": "bytes32"
        },
        {
          "indexed": true,
          "internalType": "address",
          "name": "owner",
          "type": "address"
        }
      ],
      "name": "ResourceRevoked",
      "type": "event"
    },
    {
      "anonymous": false,
      "inputs": [
        {
          "indexed": true,
          "internalType": "bytes32",
          "name": "role",
          "type": "bytes32"
        },
        {
          "indexed": true,
          "internalType": "bytes32",
          "name": "previousAdminRole",
          "type": "bytes32"
        },
        {
          "indexed": true,
          "internalType": "bytes32",
          "name": "newAdminRole",
          "type": "bytes32"
        }
      ],
      "name": "RoleAdminChanged",
      "type": "event"
    },
    {
      "anonymous": false,
      "inputs": [
        {
          "indexed": true,
          "internalType": "bytes32",
          "name": "role",
          "type": "bytes32"
        },
        {
          "indexed": true,
          "internalType": "address",
          "name": "account",
          "type": "address"
        },
        {
          "indexed": true,
          "internalType": "address",
          "name": "sender",
          "type": "address"
        }
      ],
      "name": "RoleGranted",
      "type": "event"
    },
    {
      "anonymous": false,
      "inputs": [
        {
          "indexed": true,
          "internalType": "bytes32",
          "name": "role",
          "type": "bytes32"
        },
        {
          "indexed": true,
          "internalType": "address",
          "name": "account",
          "type": "address"
        },
        {
          "indexed": true,
          "internalType": "address",
          "name": "sender",
          "type": "address"
        }
      ],
      "name": "RoleRevoked",
      "type": "event"
    },
    {
      "inputs": [],
      "name": "AUDITOR_ROLE",
      "outputs": [
        {
          "internalType": "bytes32",
          "name": "",
          "type": "bytes32"
        }
      ],
      "stateMutability": "view",
      "type": "function"
    },
    {
      "inputs": [],
      "name": "DEFAULT_ADMIN_ROLE",
      "outputs": [
        {
          "internalType": "bytes32",
          "name": "",
          "type": "bytes32"
        }
      ],
      "stateMutability": "view",
      "type": "function"
    },
    {
      "inputs": [],
      "name": "EMERGENCY_ISSUER_ROLE",
      "outputs": [
        {
          "internalType": "bytes32",
          "name": "",
          "type": "bytes32"
        }
      ],
      "stateMutability": "view",
      "type": "function"
    },
    {
      "inputs": [
        {
          "internalType": "bytes32",
          "name": "resourceId",
          "type": "bytes32"
        },
        {
          "internalType": "address",
          "name": "grantee",
          "type": "address"
        }
      ],
      "name": "getEncryptedKey",
      "outputs": [
        {
          "internalType": "bytes",
          "name": "",
          "type": "bytes"
        }
      ],
      "stateMutability": "view",
      "type": "function"
    },
    {
      "inputs": [
        {
          "internalType": "bytes32",
          "name": "resourceId",
          "type": "bytes32"
        }
      ],
      "name": "getResource",
      "outputs": [
        {
          "components": [
            {
              "internalType": "address",
              "name": "owner",
              "type": "address"
            },
            {
              "internalType": "string",
              "name": "cid",
              "type": "string"
            },
            {
              "internalType": "bytes32",
              "name": "cipherHash",
              "type": "bytes32"
            },
            {
              "internalType": "string",
              "name": "metadata",
              "type": "string"
            },
            {
              "internalType": "uint256",
              "name": "createdAt",
              "type": "uint256"
            },
            {
              "internalType": "bool",
              "name": "isRevoked",
              "type": "bool"
            }
          ],
          "internalType": "struct MedisecureRegistry.Resource",
          "name": "",
          "type": "tuple"
        }
      ],
      "stateMutability": "view",
      "type": "function"
    },
    {
      "inputs": [
        {
          "internalType": "bytes32",
          "name": "role",
          "type": "bytes32"
        }
      ],
      "name": "getRoleAdmin",
      "outputs": [
        {
          "internalType": "bytes32",
          "name": "",
          "type": "bytes32"
        }
      ],
      "stateMutability": "view",
      "type": "function"
    },
    {
      "inputs": [
        {
          "internalType": "bytes32",
          "name": "resourceId",
          "type": "bytes32"
        },
        {
          "internalType": "address",
          "name": "grantee",
          "type": "address"
        },
        {
          "internalType": "bytes",
          "name": "encryptedSymKey",
          "type": "bytes"
        }
      ],
      "name": "grantAccess",
      "outputs": [],
      "stateMutability": "nonpayable",
      "type": "function"
    },
    {
      "inputs": [
        {
          "internalType": "bytes32",
          "name": "role",
          "type": "bytes32"
        },
        {
          "internalType": "address",
          "name": "account",
          "type": "address"
        }
      ],
      "name": "grantRole",
      "outputs": [],
      "stateMutability": "nonpayable",
      "type": "function"
    },
    {
      "inputs": [
        {
          "internalType": "bytes32",
          "name": "role",
          "type": "bytes32"
        },
        {
          "internalType": "address",
          "name": "account",
          "type": "address"
        }
      ],
      "name": "hasRole",
      "outputs": [
        {
          "internalType": "bool",
          "name": "",
          "type": "bool"
        }
      ],
      "stateMutability": "view",
      "type": "function"
    },
    {
      "inputs": [
        {
          "internalType": "bytes32",
          "name": "resourceId",
          "type": "bytes32"
        },
        {
          "internalType": "address",
          "name": "requester",
          "type": "address"
        },
        {
          "internalType": "string",
          "name": "reason",
          "type": "string"
        }
      ],
      "name": "issueEmergencyAccess",
      "outputs": [],
      "stateMutability": "nonpayable",
      "type": "function"
    },
    {
      "inputs": [
        {
          "internalType": "bytes32",
          "name": "resourceId",
          "type": "bytes32"
        },
        {
          "internalType": "string",
          "name": "cid",
          "type": "string"
        },
        {
          "internalType": "bytes32",
          "name": "cipherHash",
          "type": "bytes32"
        },
        {
          "internalType": "string",
          "name": "metadata",
          "type": "string"
        }
      ],
      "name": "registerResource",
      "outputs": [],
      "stateMutability": "nonpayable",
      "type": "function"
    },
    {
      "inputs": [
        {
          "internalType": "bytes32",
          "name": "role",
          "type": "bytes32"
        },
        {
          "internalType": "address",
          "name": "account",
          "type": "address"
        }
      ],
      "name": "renounceRole",
      "outputs": [],
      "stateMutability": "nonpayable",
      "type": "function"
    },
    {
      "inputs": [
        {
          "internalType": "bytes32",
          "name": "",
          "type": "bytes32"
        }
      ],
      "name": "resources",
      "outputs": [
        {
          "internalType": "address",
          "name": "owner",
          "type": "address"
        },
        {
          "internalType": "string",
          "name": "cid",
          "type": "string"
        },
        {
          "internalType": "bytes32",
          "name": "cipherHash",
          "type": "bytes32"
        },
        {
          "internalType": "string",
          "name": "metadata",
          "type": "string"
        },
        {
          "internalType": "uint256",
          "name": "createdAt",
          "type": "uint256"
        },
        {
          "internalType": "bool",
          "name": "isRevoked",
          "type": "bool"
        }
      ],
      "stateMutability": "view",
      "type": "function"
    },
    {
      "inputs": [
        {
          "internalType": "bytes32",
          "name": "resourceId",
          "type": "bytes32"
        },
        {
          "internalType": "address",
          "name": "grantee",
          "type": "address"
        }
      ],
      "name": "revokeAccess",
      "outputs": [],
      "stateMutability": "nonpayable",
      "type": "function"
    },
    {
      "inputs": [
        {
          "internalType": "bytes32",
          "name": "resourceId",
          "type": "bytes32"
        }
      ],
      "name": "revokeResource",
      "outputs": [],
      "stateMutability": "nonpayable",
      "type": "function"
    },
    {
      "inputs": [
        {
          "internalType": "bytes32",
          "name": "role",
          "type": "bytes32"
        },
        {
          "internalType": "address",
          "name": "account",
          "type": "address"
        }
      ],
      "name": "revokeRole",
      "outputs": [],
      "stateMutability": "nonpayable",
      "type": "function"
    },
    {
      "inputs": [
        {
          "internalType": "bytes4",
          "name": "interfaceId",
          "type": "bytes4"
        }
      ],
      "name": "supportsInterface",
      "outputs": [
        {
          "internalType": "bool",
          "name": "",
          "type": "bool"
        }
      ],
      "stateMutability": "view",
      "type": "function"
    }
  ],
  "bytecode": "0x60806040523480156200001157600080fd5b5060405162002b5638038062002b5683398181016040528101906200003791906200034e565b60008073ffffffffffffffffffffffffffffffffffffffff168273ffffffffffffffffffffffffffffffffffffffff161462000074578162000076565b335b90506200008d6000801b82620000ff60201b60201c565b620000c27f5b8b380b1c48963186c539f7406268ddbde5178d20526fbfbe57a758a7b86afd6000801b620001f060201b60201c565b620000f77f59a1c48e5837ad7a7f3dcedcbe129bf3249ec4fbf651fd4f5e2600ead39fe2f56000801b620001f060201b60201c565b505062000380565b6200011182826200025360201b60201c565b620001ec57600160008084815260200190815260200160002060000160008373ffffffffffffffffffffffffffffffffffffffff1673ffffffffffffffffffffffffffffffffffffffff16815260200190815260200160002060006101000a81548160ff02191690831515021790555062000191620002bd60201b60201c565b73ffffffffffffffffffffffffffffffffffffffff168173ffffffffffffffffffffffffffffffffffffffff16837f2f8788117e7eff1d82e926ec794901d17c78024a50270940304540a733656f0d60405160405180910390a45b5050565b60006200020383620002c560201b60201c565b905081600080858152602001908152602001600020600101819055508181847fbd79b86ffe0ab8e8776151514217cd7cacd52c909f66475c3af44e129f0b00ff60405160405180910390a4505050565b600080600084815260200190815260200160002060000160008373ffffffffffffffffffffffffffffffffffffffff1673ffffffffffffffffffffffffffffffffffffffff16815260200190815260200160002060009054906101000a900460ff16905092915050565b600033905090565b6000806000838152602001908152602001600020600101549050919050565b600080fd5b600073ffffffffffffffffffffffffffffffffffffffff82169050919050565b60006200031682620002e9565b9050919050565b620003288162000309565b81146200033457600080fd5b50565b60008151905062000348816200031d565b92915050565b600060208284031215620003675762000366620002e4565b5b6000620003778482850162000337565b91505092915050565b6127c680620003906000396000f3fe608060405234801561001057600080fd5b506004361061010b5760003560e01c80638d53b208116100a2578063a217fddf11610071578063a217fddf146102cb578063b4d6af8a146102e9578063c98dc5cc14610319578063d547741f14610335578063fe611a7c146103515761010b565b80638d53b2081461022e578063912929df1461024a57806391d148541461027f578063a09d7b47146102af5761010b565b80636e1d616e116100de5780636e1d616e146101a857806378037e89146101c65780637bbc67d7146101e25780638a81ced2146102125761010b565b806301ffc9a714610110578063248a9ca3146101405780632f2ff15d1461017057806336568abe1461018c575b600080fd5b61012a600480360381019061012591906116ca565b61036f565b6040516101379190611712565b60405180910390f35b61015a60048036038101906101559190611763565b6103e9565b604051610167919061179f565b60405180910390f35b61018a60048036038101906101859190611818565b610408565b005b6101a660048036038101906101a19190611818565b610429565b005b6101b06104ac565b6040516101bd919061179f565b60405180910390f35b6101e060048036038101906101db91906118bd565b6104d0565b005b6101fc60048036038101906101f79190611818565b61075f565b60405161020991906119f4565b60405180910390f35b61022c60048036038101906102279190611a6c565b610842565b005b61024860048036038101906102439190611818565b61099d565b005b610264600480360381019061025f9190611763565b610ae5565b60405161027696959493929190611b5d565b60405180910390f35b61029960048036038101906102949190611818565b610c5e565b6040516102a69190611712565b60405180910390f35b6102c960048036038101906102c49190611bcc565b610cc8565b005b6102d3610d4a565b6040516102e0919061179f565b60405180910390f35b61030360048036038101906102fe9190611763565b610d51565b6040516103109190611d56565b60405180910390f35b610333600480360381019061032e9190611763565b610f27565b005b61034f600480360381019061034a9190611818565b611040565b005b610359611061565b604051610366919061179f565b60405180910390f35b60007f7965db0b000000000000000000000000000000000000000000000000000000007bffffffffffffffffffffffffffffffffffffffffffffffffffffffff1916827bffffffffffffffffffffffffffffffffffffffffffffffffffffffff191614806103e257506103e182611085565b5b9050919050565b6000806000838152602001908152602001600020600101549050919050565b610411826103e9565b61041a816110ef565b6104248383611103565b505050565b6104316111e3565b73ffffffffffffffffffffffffffffffffffffffff168173ffffffffffffffffffffffffffffffffffffffff161461049e576040517f08c379a000000000000000000000000000000000000000000000000000000000815260040161049590611dea565b60405180910390fd5b6104a882826111eb565b5050565b7f59a1c48e5837ad7a7f3dcedcbe129bf3249ec4fbf651fd4f5e2600ead39fe2f581565b600073ffffffffffffffffffffffffffffffffffffffff166001600088815260200190815260200160002060000160009054906101000a900473ffffffffffffffffffffffffffffffffffffffff1673ffffffffffffffffffffffffffffffffffffffff1614610575576040517f08c379a000000000000000000000000000000000000000000000000000000000815260040161056c90611e56565b60405180910390fd5b6040518060c001604052803373ffffffffffffffffffffffffffffffffffffffff16815260200186868080601f016020809104026020016040519081016040528093929190818152602001838380828437600081840152601f19601f82011690508083019250505050505050815260200184815260200183838080601f016020809104026020016040519081016040528093929190818152602001838380828437600081840152601f19601f820116905080830192505050505050508152602001428152602001600015158152506001600088815260200190815260200160002060008201518160000160006101000a81548173ffffffffffffffffffffffffffffffffffffffff021916908373ffffffffffffffffffffffffffffffffffffffff16021790555060208201518160010190816106b291906120b1565b506040820151816002015560608201518160030190816106d291906120b1565b506080820151816004015560a08201518160050160006101000a81548160ff0219169083151502179055509050503373ffffffffffffffffffffffffffffffffffffffff16867f7558b213d20d3fc6a76d8ff962aadd6d9814a78f8ac058d028f604db2b57dc12878787878760405161074f9594939291906121bf565b60405180910390a3505050505050565b60606002600084815260200190815260200160002060008373ffffffffffffffffffffffffffffffffffffffff1673ffffffffffffffffffffffffffffffffffffffff16815260200190815260200160002080546107bc90611ed4565b80601f01602080910402602001604051908101604052809291908181526020018280546107e890611ed4565b80156108355780601f1061080a57610100808354040283529160200191610835565b820191906000526020600020905b81548152906001019060200180831161081857829003601f168201915b5050505050905092915050565b3373ffffffffffffffffffffffffffffffffffffffff166001600086815260200190815260200160002060000160009054906101000a900473ffffffffffffffffffffffffffffffffffffffff1673ffffffffffffffffffffffffffffffffffffffff16146108e6576040517f08c379a00000000000000000000000000000000000000000000000000000000081526004016108dd90612254565b60405180910390fd5b81816002600087815260200190815260200160002060008673ffffffffffffffffffffffffffffffffffffffff1673ffffffffffffffffffffffffffffffffffffffff16815260200190815260200160002091826109459291906122da565b508273ffffffffffffffffffffffffffffffffffffffff16847fbc24e63dea805938c4ea3451ac507fe5217a4aad448a7f83fac2af9e5cda74f5848460405161098f9291906123d7565b60405180910390a350505050565b3373ffffffffffffffffffffffffffffffffffffffff166001600084815260200190815260200160002060000160009054906101000a900473ffffffffffffffffffffffffffffffffffffffff1673ffffffffffffffffffffffffffffffffffffffff1614610a41576040517f08c379a0000000000000000000000000000000000000000000000000000000008152600401610a3890612447565b60405180910390fd5b6002600083815260200190815260200160002060008273ffffffffffffffffffffffffffffffffffffffff1673ffffffffffffffffffffffffffffffffffffffff1681526020019081526020016000206000610a9d91906115ba565b8073ffffffffffffffffffffffffffffffffffffffff16827fe7906b77ea165c70ad8268ce5b59b778a198edf9c1ae4118378eefdc76fce5f460405160405180910390a35050565b60016020528060005260406000206000915090508060000160009054906101000a900473ffffffffffffffffffffffffffffffffffffffff1690806001018054610b2e90611ed4565b80601f0160208091040260200160405190810160405280929190818152602001828054610b5a90611ed4565b8015610ba75780601f10610b7c57610100808354040283529160200191610ba7565b820191906000526020600020905b815481529060010190602001808311610b8a57829003601f168201915b505050505090806002015490806003018054610bc290611ed4565b80601f0160208091040260200160405190810160405280929190818152602001828054610bee90611ed4565b8015610c3b5780601f10610c1057610100808354040283529160200191610c3b565b820191906000526020600020905b815481529060010190602001808311610c1e57829003601f168201915b5050505050908060040154908060050160009054906101000a900460ff16905086565b600080600084815260200190815260200160002060000160008373ffffffffffffffffffffffffffffffffffffffff1673ffffffffffffffffffffffffffffffffffffffff16815260200190815260200160002060009054906101000a900460ff16905092915050565b7f5b8b380b1c48963186c539f7406268ddbde5178d20526fbfbe57a758a7b86afd610cf2816110ef565b8373ffffffffffffffffffffffffffffffffffffffff16857ff2fe571b789de7dab84eb5ebd68136a8a9478730b721d661ac4acd817f5798938585604051610d3b929190612467565b60405180910390a35050505050565b6000801b81565b610d596115fa565b600160008381526020019081526020016000206040518060c00160405290816000820160009054906101000a900473ffffffffffffffffffffffffffffffffffffffff1673ffffffffffffffffffffffffffffffffffffffff1673ffffffffffffffffffffffffffffffffffffffff168152602001600182018054610ddd90611ed4565b80601f0160208091040260200160405190810160405280929190818152602001828054610e0990611ed4565b8015610e565780601f10610e2b57610100808354040283529160200191610e56565b820191906000526020600020905b815481529060010190602001808311610e3957829003601f168201915b5050505050815260200160028201548152602001600382018054610e7990611ed4565b80601f0160208091040260200160405190810160405280929190818152602001828054610ea590611ed4565b8015610ef25780601f10610ec757610100808354040283529160200191610ef2565b820191906000526020600020905b815481529060010190602001808311610ed557829003601f168201915b50505050508152602001600482015481526020016005820160009054906101000a900460ff1615151515815250509050919050565b3373ffffffffffffffffffffffffffffffffffffffff166001600083815260200190815260200160002060000160009054906101000a900473ffffffffffffffffffffffffffffffffffffffff1673ffffffffffffffffffffffffffffffffffffffff1614610fcb576040517f08c379a0000000000000000000000000000000000000000000000000000000008152600401610fc2906124d7565b60405180910390fd5b600180600083815260200190815260200160002060050160006101000a81548160ff0219169083151502179055503373ffffffffffffffffffffffffffffffffffffffff16817ffeca0d4ad32e01b52fe5b4ec9910cee9bf4ef26cadf54d0ec8d20d3409fc1f2460405160405180910390a350565b611049826103e9565b611052816110ef565b61105c83836111eb565b505050565b7f5b8b380b1c48963186c539f7406268ddbde5178d20526fbfbe57a758a7b86afd81565b60007f01ffc9a7000000000000000000000000000000000000000000000000000000007bffffffffffffffffffffffffffffffffffffffffffffffffffffffff1916827bffffffffffffffffffffffffffffffffffffffffffffffffffffffff1916149050919050565b611100816110fb6111e3565b6112cc565b50565b61110d8282610c5e565b6111df57600160008084815260200190815260200160002060000160008373ffffffffffffffffffffffffffffffffffffffff1673ffffffffffffffffffffffffffffffffffffffff16815260200190815260200160002060006101000a81548160ff0219169083151502179055506111846111e3565b73ffffffffffffffffffffffffffffffffffffffff168173ffffffffffffffffffffffffffffffffffffffff16837f2f8788117e7eff1d82e926ec794901d17c78024a50270940304540a733656f0d60405160405180910390a45b5050565b600033905090565b6111f58282610c5e565b156112c857600080600084815260200190815260200160002060000160008373ffffffffffffffffffffffffffffffffffffffff1673ffffffffffffffffffffffffffffffffffffffff16815260200190815260200160002060006101000a81548160ff02191690831515021790555061126d6111e3565b73ffffffffffffffffffffffffffffffffffffffff168173ffffffffffffffffffffffffffffffffffffffff16837ff6391f5c32d9c69d2a47ea670b442974b53935d1edc7fd64eb21e047a839171b60405160405180910390a45b5050565b6112d68282610c5e565b61134d576112e381611351565b6112f18360001c602061137e565b6040516020016113029291906125cb565b6040516020818303038152906040526040517f08c379a00000000000000000000000000000000000000000000000000000000081526004016113449190612605565b60405180910390fd5b5050565b60606113778273ffffffffffffffffffffffffffffffffffffffff16601460ff1661137e565b9050919050565b6060600060028360026113919190612656565b61139b9190612698565b67ffffffffffffffff8111156113b4576113b3611e76565b5b6040519080825280601f01601f1916602001820160405280156113e65781602001600182028036833780820191505090505b5090507f30000000000000000000000000000000000000000000000000000000000000008160008151811061141e5761141d6126cc565b5b60200101907effffffffffffffffffffffffffffffffffffffffffffffffffffffffffffff1916908160001a9053507f780000000000000000000000000000000000000000000000000000000000000081600181518110611482576114816126cc565b5b60200101907effffffffffffffffffffffffffffffffffffffffffffffffffffffffffffff1916908160001a905350600060018460026114c29190612656565b6114cc9190612698565b90505b600181111561156c577f3031323334353637383961626364656600000000000000000000000000000000600f86166010811061150e5761150d6126cc565b5b1a60f81b828281518110611525576115246126cc565b5b60200101907effffffffffffffffffffffffffffffffffffffffffffffffffffffffffffff1916908160001a905350600485901c945080611565906126fb565b90506114cf565b50600084146115b0576040517f08c379a00000000000000000000000000000000000000000000000000000000081526004016115a790612770565b60405180910390fd5b8091505092915050565b5080546115c690611ed4565b6000825580601f106115d857506115f7565b601f0160209004906000526020600020908101906115f6919061164b565b5b50565b6040518060c00160405280600073ffffffffffffffffffffffffffffffffffffffff168152602001606081526020016000801916815260200160608152602001600081526020016000151581525090565b5b8082111561166457600081600090555060010161164c565b5090565b600080fd5b600080fd5b60007fffffffff0000000000000000000000000000000000000000000000000000000082169050919050565b6116a781611672565b81146116b257600080fd5b50565b6000813590506116c48161169e565b92915050565b6000602082840312156116e0576116df611668565b5b60006116ee848285016116b5565b91505092915050565b60008115159050919050565b61170c816116f7565b82525050565b60006020820190506117276000830184611703565b92915050565b6000819050919050565b6117408161172d565b811461174b57600080fd5b50565b60008135905061175d81611737565b92915050565b60006020828403121561177957611778611668565b5b60006117878482850161174e565b91505092915050565b6117998161172d565b82525050565b60006020820190506117b46000830184611790565b92915050565b600073ffffffffffffffffffffffffffffffffffffffff82169050919050565b60006117e5826117ba565b9050919050565b6117f5816117da565b811461180057600080fd5b50565b600081359050611812816117ec565b92915050565b6000806040838503121561182f5761182e611668565b5b600061183d8582860161174e565b925050602061184e85828601611803565b9150509250929050565b600080fd5b600080fd5b600080fd5b60008083601f84011261187d5761187c611858565b5b8235905067ffffffffffffffff81111561189a5761189961185d565b5b6020830191508360018202830111156118b6576118b5611862565b5b9250929050565b600080600080600080608087890312156118da576118d9611668565b5b60006118e889828a0161174e565b965050602087013567ffffffffffffffff8111156119095761190861166d565b5b61191589828a01611867565b9550955050604061192889828a0161174e565b935050606087013567ffffffffffffffff8111156119495761194861166d565b5b61195589828a01611867565b92509250509295509295509295565b600081519050919050565b600082825260208201905092915050565b60005b8381101561199e578082015181840152602081019050611983565b60008484015250505050565b6000601f19601f8301169050919050565b60006119c682611964565b6119d0818561196f565b93506119e0818560208601611980565b6119e9816119aa565b840191505092915050565b60006020820190508181036000830152611a0e81846119bb565b905092915050565b60008083601f840112611a2c57611a2b611858565b5b8235905067ffffffffffffffff811115611a4957611a4861185d565b5b602083019150836001820283011115611a6557611a64611862565b5b9250929050565b60008060008060608587031215611a8657611a85611668565b5b6000611a948782880161174e565b9450506020611aa587828801611803565b935050604085013567ffffffffffffffff811115611ac657611ac561166d565b5b611ad287828801611a16565b925092505092959194509250565b611ae9816117da565b82525050565b600081519050919050565b600082825260208201905092915050565b6000611b1682611aef565b611b208185611afa565b9350611b30818560208601611980565b611b39816119aa565b840191505092915050565b6000819050919050565b611b5781611b44565b82525050565b600060c082019050611b726000830189611ae0565b8181036020830152611b848188611b0b565b9050611b936040830187611790565b8181036060830152611ba58186611b0b565b9050611bb46080830185611b4e565b611bc160a0830184611703565b979650505050505050565b60008060008060608587031215611be657611be5611668565b5b6000611bf48782880161174e565b9450506020611c0587828801611803565b935050604085013567ffffffffffffffff811115611c2657611c2561166d565b5b611c3287828801611867565b925092505092959194509250565b611c49816117da565b82525050565b600082825260208201905092915050565b6000611c6b82611aef565b611c758185611c4f565b9350611c85818560208601611980565b611c8e816119aa565b840191505092915050565b611ca28161172d565b82525050565b611cb181611b44565b82525050565b611cc0816116f7565b82525050565b600060c083016000830151611cde6000860182611c40565b5060208301518482036020860152611cf68282611c60565b9150506040830151611d0b6040860182611c99565b5060608301518482036060860152611d238282611c60565b9150506080830151611d386080860182611ca8565b5060a0830151611d4b60a0860182611cb7565b508091505092915050565b60006020820190508181036000830152611d708184611cc6565b905092915050565b7f416363657373436f6e74726f6c3a2063616e206f6e6c792072656e6f756e636560008201527f20726f6c657320666f722073656c660000000000000000000000000000000000602082015250565b6000611dd4602f83611afa565b9150611ddf82611d78565b604082019050919050565b60006020820190508181036000830152611e0381611dc7565b9050919050565b7f5265736f7572636520616c726561647920657869737473000000000000000000600082015250565b6000611e40601783611afa565b9150611e4b82611e0a565b602082019050919050565b60006020820190508181036000830152611e6f81611e33565b9050919050565b7f4e487b7100000000000000000000000000000000000000000000000000000000600052604160045260246000fd5b7f4e487b7100000000000000000000000000000000000000000000000000000000600052602260045260246000fd5b60006002820490506001821680611eec57607f821691505b602082108103611eff57611efe611ea5565b5b50919050565b60008190508160005260206000209050919050565b60006020601f8301049050919050565b600082821b905092915050565b600060088302611f677fffffffffffffffffffffffffffffffffffffffffffffffffffffffffffffffff82611f2a565b611f718683611f2a565b95508019841693508086168417925050509392505050565b6000819050919050565b6000611fae611fa9611fa484611b44565b611f89565b611b44565b9050919050565b6000819050919050565b611fc883611f93565b611fdc611fd482611fb5565b848454611f37565b825550505050565b600090565b611ff1611fe4565b611ffc818484611fbf565b505050565b5b8181101561202057612015600082611fe9565b600181019050612002565b5050565b601f8211156120655761203681611f05565b61203f84611f1a565b8101602085101561204e578190505b61206261205a85611f1a565b830182612001565b50505b505050565b600082821c905092915050565b60006120886000198460080261206a565b1980831691505092915050565b60006120a18383612077565b9150826002028217905092915050565b6120ba82611aef565b67ffffffffffffffff8111156120d3576120d2611e76565b5b6120dd8254611ed4565b6120e8828285612024565b600060209050601f83116001811461211b5760008415612109578287015190505b6121138582612095565b86555061217b565b601f19841661212986611f05565b60005b828110156121515784890151825560018201915060208501945060208101905061212c565b8683101561216e578489015161216a601f891682612077565b8355505b6001600288020188555050505b505050505050565b82818337600083830152505050565b600061219e8385611afa565b93506121ab838584612183565b6121b4836119aa565b840190509392505050565b600060608201905081810360008301526121da818789612192565b90506121e96020830186611790565b81810360408301526121fc818486612192565b90509695505050505050565b7f4f6e6c79206f776e65722063616e206772616e74206163636573730000000000600082015250565b600061223e601b83611afa565b915061224982612208565b602082019050919050565b6000602082019050818103600083015261226d81612231565b9050919050565b600082905092915050565b60008190508160005260206000209050919050565b601f8211156122d5576122a68161227f565b6122af84611f1a565b810160208510156122be578190505b6122d26122ca85611f1a565b830182612001565b50505b505050565b6122e48383612274565b67ffffffffffffffff8111156122fd576122fc611e76565b5b6123078254611ed4565b612312828285612294565b6000601f831160018114612341576000841561232f578287013590505b6123398582612095565b8655506123a1565b601f19841661234f8661227f565b60005b8281101561237757848901358255600182019150602085019450602081019050612352565b868310156123945784890135612390601f891682612077565b8355505b6001600288020188555050505b50505050505050565b60006123b6838561196f565b93506123c3838584612183565b6123cc836119aa565b840190509392505050565b600060208201905081810360008301526123f28184866123aa565b90509392505050565b7f4f6e6c79206f776e65722063616e207265766f6b652061636365737300000000600082015250565b6000612431601c83611afa565b915061243c826123fb565b602082019050919050565b6000602082019050818103600083015261246081612424565b9050919050565b60006020820190508181036000830152612482818486612192565b90509392505050565b7f4e6f74207265736f75726365206f776e65720000000000000000000000000000600082015250565b60006124c1601283611afa565b91506124cc8261248b565b602082019050919050565b600060208201905081810360008301526124f0816124b4565b9050919050565b600081905092915050565b7f416363657373436f6e74726f6c3a206163636f756e7420000000000000000000600082015250565b60006125386017836124f7565b915061254382612502565b601782019050919050565b600061255982611aef565b61256381856124f7565b9350612573818560208601611980565b80840191505092915050565b7f206973206d697373696e6720726f6c6520000000000000000000000000000000600082015250565b60006125b56011836124f7565b91506125c08261257f565b601182019050919050565b60006125d68261252b565b91506125e2828561254e565b91506125ed826125a8565b91506125f9828461254e565b91508190509392505050565b6000602082019050818103600083015261261f8184611b0b565b905092915050565b7f4e487b7100000000000000000000000000000000000000000000000000000000600052601160045260246000fd5b600061266182611b44565b915061266c83611b44565b925082820261267a81611b44565b9150828204841483151761269157612690612627565b5b5092915050565b60006126a382611b44565b91506126ae83611b44565b92508282019050808211156126c6576126c5612627565b5b92915050565b7f4e487b7100000000000000000000000000000000000000000000000000000000600052603260045260246000fd5b600061270682611b44565b91506000820361271957612718612627565b5b600182039050919050565b7f537472696e67733a20686578206c656e67746820696e73756666696369656e74600082015250565b600061275a602083611afa565b915061276582612724565b602082019050919050565b600060208201905081810360008301526127898161274d565b905091905056fea2646970667358221220c8334f680469e66e55a276e14e09159618edb5474179334839fa9edcb30e16c964736f6c63430008140033",
  "linkReferences": {},
  "deployedLinkReferences": {}
}